{
  "address": "0x5FC8d32690cc91D4c39d9d3abcBD16989F875707",
  "abi": [
    {
      "inputs": [
        {
          "internalType": "contract IVotes",
          "name": "_token",
          "type": "address"
        },
        {
          "internalType": "contract TimelockController",
          "name": "_timelock",
          "type": "address"
        },
        {
          "internalType": "uint256",
          "name": "_quorumPercentage",
          "type": "uint256"
        },
        {
          "internalType": "uint256",
          "name": "_votingPeriod",
          "type": "uint256"
        },
        {
          "internalType": "uint256",
          "name": "_votingDelay",
          "type": "uint256"
        }
      ],
      "stateMutability": "nonpayable",
      "type": "constructor"
    },
    {
      "inputs": [],
      "name": "Empty",
      "type": "error"
    },
    {
      "anonymous": false,
      "inputs": [
        {
          "indexed": false,
          "internalType": "uint256",
          "name": "proposalId",
          "type": "uint256"
        }
      ],
      "name": "ProposalCanceled",
      "type": "event"
    },
    {
      "anonymous": false,
      "inputs": [
        {
          "indexed": false,
          "internalType": "uint256",
          "name": "proposalId",
          "type": "uint256"
        },
        {
          "indexed": false,
          "internalType": "address",
          "name": "proposer",
          "type": "address"
        },
        {
          "indexed": false,
          "internalType": "address[]",
          "name": "targets",
          "type": "address[]"
        },
        {
          "indexed": false,
          "internalType": "uint256[]",
          "name": "values",
          "type": "uint256[]"
        },
        {
          "indexed": false,
          "internalType": "string[]",
          "name": "signatures",
          "type": "string[]"
        },
        {
          "indexed": false,
          "internalType": "bytes[]",
          "name": "calldatas",
          "type": "bytes[]"
        },
        {
          "indexed": false,
          "internalType": "uint256",
          "name": "startBlock",
          "type": "uint256"
        },
        {
          "indexed": false,
          "internalType": "uint256",
          "name": "endBlock",
          "type": "uint256"
        },
        {
          "indexed": false,
          "internalType": "string",
          "name": "description",
          "type": "string"
        }
      ],
      "name": "ProposalCreated",
      "type": "event"
    },
    {
      "anonymous": false,
      "inputs": [
        {
          "indexed": false,
          "internalType": "uint256",
          "name": "proposalId",
          "type": "uint256"
        }
      ],
      "name": "ProposalExecuted",
      "type": "event"
    },
    {
      "anonymous": false,
      "inputs": [
        {
          "indexed": false,
          "internalType": "uint256",
          "name": "proposalId",
          "type": "uint256"
        },
        {
          "indexed": false,
          "internalType": "uint256",
          "name": "eta",
          "type": "uint256"
        }
      ],
      "name": "ProposalQueued",
      "type": "event"
    },
    {
      "anonymous": false,
      "inputs": [
        {
          "indexed": false,
          "internalType": "uint256",
          "name": "oldProposalThreshold",
          "type": "uint256"
        },
        {
          "indexed": false,
          "internalType": "uint256",
          "name": "newProposalThreshold",
          "type": "uint256"
        }
      ],
      "name": "ProposalThresholdSet",
      "type": "event"
    },
    {
      "anonymous": false,
      "inputs": [
        {
          "indexed": false,
          "internalType": "uint256",
          "name": "oldQuorumNumerator",
          "type": "uint256"
        },
        {
          "indexed": false,
          "internalType": "uint256",
          "name": "newQuorumNumerator",
          "type": "uint256"
        }
      ],
      "name": "QuorumNumeratorUpdated",
      "type": "event"
    },
    {
      "anonymous": false,
      "inputs": [
        {
          "indexed": false,
          "internalType": "address",
          "name": "oldTimelock",
          "type": "address"
        },
        {
          "indexed": false,
          "internalType": "address",
          "name": "newTimelock",
          "type": "address"
        }
      ],
      "name": "TimelockChange",
      "type": "event"
    },
    {
      "anonymous": false,
      "inputs": [
        {
          "indexed": true,
          "internalType": "address",
          "name": "voter",
          "type": "address"
        },
        {
          "indexed": false,
          "internalType": "uint256",
          "name": "proposalId",
          "type": "uint256"
        },
        {
          "indexed": false,
          "internalType": "uint8",
          "name": "support",
          "type": "uint8"
        },
        {
          "indexed": false,
          "internalType": "uint256",
          "name": "weight",
          "type": "uint256"
        },
        {
          "indexed": false,
          "internalType": "string",
          "name": "reason",
          "type": "string"
        }
      ],
      "name": "VoteCast",
      "type": "event"
    },
    {
      "anonymous": false,
      "inputs": [
        {
          "indexed": true,
          "internalType": "address",
          "name": "voter",
          "type": "address"
        },
        {
          "indexed": false,
          "internalType": "uint256",
          "name": "proposalId",
          "type": "uint256"
        },
        {
          "indexed": false,
          "internalType": "uint8",
          "name": "support",
          "type": "uint8"
        },
        {
          "indexed": false,
          "internalType": "uint256",
          "name": "weight",
          "type": "uint256"
        },
        {
          "indexed": false,
          "internalType": "string",
          "name": "reason",
          "type": "string"
        },
        {
          "indexed": false,
          "internalType": "bytes",
          "name": "params",
          "type": "bytes"
        }
      ],
      "name": "VoteCastWithParams",
      "type": "event"
    },
    {
      "anonymous": false,
      "inputs": [
        {
          "indexed": false,
          "internalType": "uint256",
          "name": "oldVotingDelay",
          "type": "uint256"
        },
        {
          "indexed": false,
          "internalType": "uint256",
          "name": "newVotingDelay",
          "type": "uint256"
        }
      ],
      "name": "VotingDelaySet",
      "type": "event"
    },
    {
      "anonymous": false,
      "inputs": [
        {
          "indexed": false,
          "internalType": "uint256",
          "name": "oldVotingPeriod",
          "type": "uint256"
        },
        {
          "indexed": false,
          "internalType": "uint256",
          "name": "newVotingPeriod",
          "type": "uint256"
        }
      ],
      "name": "VotingPeriodSet",
      "type": "event"
    },
    {
      "inputs": [],
      "name": "BALLOT_TYPEHASH",
      "outputs": [
        {
          "internalType": "bytes32",
          "name": "",
          "type": "bytes32"
        }
      ],
      "stateMutability": "view",
      "type": "function"
    },
    {
      "inputs": [],
      "name": "COUNTING_MODE",
      "outputs": [
        {
          "internalType": "string",
          "name": "",
          "type": "string"
        }
      ],
      "stateMutability": "pure",
      "type": "function"
    },
    {
      "inputs": [],
      "name": "EXTENDED_BALLOT_TYPEHASH",
      "outputs": [
        {
          "internalType": "bytes32",
          "name": "",
          "type": "bytes32"
        }
      ],
      "stateMutability": "view",
      "type": "function"
    },
    {
      "inputs": [
        {
          "internalType": "uint256",
          "name": "proposalId",
          "type": "uint256"
        },
        {
          "internalType": "uint8",
          "name": "support",
          "type": "uint8"
        }
      ],
      "name": "castVote",
      "outputs": [
        {
          "internalType": "uint256",
          "name": "",
          "type": "uint256"
        }
      ],
      "stateMutability": "nonpayable",
      "type": "function"
    },
    {
      "inputs": [
        {
          "internalType": "uint256",
          "name": "proposalId",
          "type": "uint256"
        },
        {
          "internalType": "uint8",
          "name": "support",
          "type": "uint8"
        },
        {
          "internalType": "uint8",
          "name": "v",
          "type": "uint8"
        },
        {
          "internalType": "bytes32",
          "name": "r",
          "type": "bytes32"
        },
        {
          "internalType": "bytes32",
          "name": "s",
          "type": "bytes32"
        }
      ],
      "name": "castVoteBySig",
      "outputs": [
        {
          "internalType": "uint256",
          "name": "",
          "type": "uint256"
        }
      ],
      "stateMutability": "nonpayable",
      "type": "function"
    },
    {
      "inputs": [
        {
          "internalType": "uint256",
          "name": "proposalId",
          "type": "uint256"
        },
        {
          "internalType": "uint8",
          "name": "support",
          "type": "uint8"
        },
        {
          "internalType": "string",
          "name": "reason",
          "type": "string"
        }
      ],
      "name": "castVoteWithReason",
      "outputs": [
        {
          "internalType": "uint256",
          "name": "",
          "type": "uint256"
        }
      ],
      "stateMutability": "nonpayable",
      "type": "function"
    },
    {
      "inputs": [
        {
          "internalType": "uint256",
          "name": "proposalId",
          "type": "uint256"
        },
        {
          "internalType": "uint8",
          "name": "support",
          "type": "uint8"
        },
        {
          "internalType": "string",
          "name": "reason",
          "type": "string"
        },
        {
          "internalType": "bytes",
          "name": "params",
          "type": "bytes"
        }
      ],
      "name": "castVoteWithReasonAndParams",
      "outputs": [
        {
          "internalType": "uint256",
          "name": "",
          "type": "uint256"
        }
      ],
      "stateMutability": "nonpayable",
      "type": "function"
    },
    {
      "inputs": [
        {
          "internalType": "uint256",
          "name": "proposalId",
          "type": "uint256"
        },
        {
          "internalType": "uint8",
          "name": "support",
          "type": "uint8"
        },
        {
          "internalType": "string",
          "name": "reason",
          "type": "string"
        },
        {
          "internalType": "bytes",
          "name": "params",
          "type": "bytes"
        },
        {
          "internalType": "uint8",
          "name": "v",
          "type": "uint8"
        },
        {
          "internalType": "bytes32",
          "name": "r",
          "type": "bytes32"
        },
        {
          "internalType": "bytes32",
          "name": "s",
          "type": "bytes32"
        }
      ],
      "name": "castVoteWithReasonAndParamsBySig",
      "outputs": [
        {
          "internalType": "uint256",
          "name": "",
          "type": "uint256"
        }
      ],
      "stateMutability": "nonpayable",
      "type": "function"
    },
    {
      "inputs": [
        {
          "internalType": "address[]",
          "name": "targets",
          "type": "address[]"
        },
        {
          "internalType": "uint256[]",
          "name": "values",
          "type": "uint256[]"
        },
        {
          "internalType": "bytes[]",
          "name": "calldatas",
          "type": "bytes[]"
        },
        {
          "internalType": "bytes32",
          "name": "descriptionHash",
          "type": "bytes32"
        }
      ],
      "name": "execute",
      "outputs": [
        {
          "internalType": "uint256",
          "name": "",
          "type": "uint256"
        }
      ],
      "stateMutability": "payable",
      "type": "function"
    },
    {
      "inputs": [
        {
          "internalType": "address",
          "name": "account",
          "type": "address"
        },
        {
          "internalType": "uint256",
          "name": "blockNumber",
          "type": "uint256"
        }
      ],
      "name": "getVotes",
      "outputs": [
        {
          "internalType": "uint256",
          "name": "",
          "type": "uint256"
        }
      ],
      "stateMutability": "view",
      "type": "function"
    },
    {
      "inputs": [
        {
          "internalType": "address",
          "name": "account",
          "type": "address"
        },
        {
          "internalType": "uint256",
          "name": "blockNumber",
          "type": "uint256"
        },
        {
          "internalType": "bytes",
          "name": "params",
          "type": "bytes"
        }
      ],
      "name": "getVotesWithParams",
      "outputs": [
        {
          "internalType": "uint256",
          "name": "",
          "type": "uint256"
        }
      ],
      "stateMutability": "view",
      "type": "function"
    },
    {
      "inputs": [
        {
          "internalType": "uint256",
          "name": "proposalId",
          "type": "uint256"
        },
        {
          "internalType": "address",
          "name": "account",
          "type": "address"
        }
      ],
      "name": "hasVoted",
      "outputs": [
        {
          "internalType": "bool",
          "name": "",
          "type": "bool"
        }
      ],
      "stateMutability": "view",
      "type": "function"
    },
    {
      "inputs": [
        {
          "internalType": "address[]",
          "name": "targets",
          "type": "address[]"
        },
        {
          "internalType": "uint256[]",
          "name": "values",
          "type": "uint256[]"
        },
        {
          "internalType": "bytes[]",
          "name": "calldatas",
          "type": "bytes[]"
        },
        {
          "internalType": "bytes32",
          "name": "descriptionHash",
          "type": "bytes32"
        }
      ],
      "name": "hashProposal",
      "outputs": [
        {
          "internalType": "uint256",
          "name": "",
          "type": "uint256"
        }
      ],
      "stateMutability": "pure",
      "type": "function"
    },
    {
      "inputs": [],
      "name": "name",
      "outputs": [
        {
          "internalType": "string",
          "name": "",
          "type": "string"
        }
      ],
      "stateMutability": "view",
      "type": "function"
    },
    {
      "inputs": [
        {
          "internalType": "address",
          "name": "",
          "type": "address"
        },
        {
          "internalType": "address",
          "name": "",
          "type": "address"
        },
        {
          "internalType": "uint256[]",
          "name": "",
          "type": "uint256[]"
        },
        {
          "internalType": "uint256[]",
          "name": "",
          "type": "uint256[]"
        },
        {
          "internalType": "bytes",
          "name": "",
          "type": "bytes"
        }
      ],
      "name": "onERC1155BatchReceived",
      "outputs": [
        {
          "internalType": "bytes4",
          "name": "",
          "type": "bytes4"
        }
      ],
      "stateMutability": "nonpayable",
      "type": "function"
    },
    {
      "inputs": [
        {
          "internalType": "address",
          "name": "",
          "type": "address"
        },
        {
          "internalType": "address",
          "name": "",
          "type": "address"
        },
        {
          "internalType": "uint256",
          "name": "",
          "type": "uint256"
        },
        {
          "internalType": "uint256",
          "name": "",
          "type": "uint256"
        },
        {
          "internalType": "bytes",
          "name": "",
          "type": "bytes"
        }
      ],
      "name": "onERC1155Received",
      "outputs": [
        {
          "internalType": "bytes4",
          "name": "",
          "type": "bytes4"
        }
      ],
      "stateMutability": "nonpayable",
      "type": "function"
    },
    {
      "inputs": [
        {
          "internalType": "address",
          "name": "",
          "type": "address"
        },
        {
          "internalType": "address",
          "name": "",
          "type": "address"
        },
        {
          "internalType": "uint256",
          "name": "",
          "type": "uint256"
        },
        {
          "internalType": "bytes",
          "name": "",
          "type": "bytes"
        }
      ],
      "name": "onERC721Received",
      "outputs": [
        {
          "internalType": "bytes4",
          "name": "",
          "type": "bytes4"
        }
      ],
      "stateMutability": "nonpayable",
      "type": "function"
    },
    {
      "inputs": [
        {
          "internalType": "uint256",
          "name": "proposalId",
          "type": "uint256"
        }
      ],
      "name": "proposalDeadline",
      "outputs": [
        {
          "internalType": "uint256",
          "name": "",
          "type": "uint256"
        }
      ],
      "stateMutability": "view",
      "type": "function"
    },
    {
      "inputs": [
        {
          "internalType": "uint256",
          "name": "proposalId",
          "type": "uint256"
        }
      ],
      "name": "proposalEta",
      "outputs": [
        {
          "internalType": "uint256",
          "name": "",
          "type": "uint256"
        }
      ],
      "stateMutability": "view",
      "type": "function"
    },
    {
      "inputs": [
        {
          "internalType": "uint256",
          "name": "proposalId",
          "type": "uint256"
        }
      ],
      "name": "proposalSnapshot",
      "outputs": [
        {
          "internalType": "uint256",
          "name": "",
          "type": "uint256"
        }
      ],
      "stateMutability": "view",
      "type": "function"
    },
    {
      "inputs": [],
      "name": "proposalThreshold",
      "outputs": [
        {
          "internalType": "uint256",
          "name": "",
          "type": "uint256"
        }
      ],
      "stateMutability": "view",
      "type": "function"
    },
    {
      "inputs": [
        {
          "internalType": "uint256",
          "name": "proposalId",
          "type": "uint256"
        }
      ],
      "name": "proposalVotes",
      "outputs": [
        {
          "internalType": "uint256",
          "name": "againstVotes",
          "type": "uint256"
        },
        {
          "internalType": "uint256",
          "name": "forVotes",
          "type": "uint256"
        },
        {
          "internalType": "uint256",
          "name": "abstainVotes",
          "type": "uint256"
        }
      ],
      "stateMutability": "view",
      "type": "function"
    },
    {
      "inputs": [
        {
          "internalType": "address[]",
          "name": "targets",
          "type": "address[]"
        },
        {
          "internalType": "uint256[]",
          "name": "values",
          "type": "uint256[]"
        },
        {
          "internalType": "bytes[]",
          "name": "calldatas",
          "type": "bytes[]"
        },
        {
          "internalType": "string",
          "name": "description",
          "type": "string"
        }
      ],
      "name": "propose",
      "outputs": [
        {
          "internalType": "uint256",
          "name": "",
          "type": "uint256"
        }
      ],
      "stateMutability": "nonpayable",
      "type": "function"
    },
    {
      "inputs": [
        {
          "internalType": "address[]",
          "name": "targets",
          "type": "address[]"
        },
        {
          "internalType": "uint256[]",
          "name": "values",
          "type": "uint256[]"
        },
        {
          "internalType": "bytes[]",
          "name": "calldatas",
          "type": "bytes[]"
        },
        {
          "internalType": "bytes32",
          "name": "descriptionHash",
          "type": "bytes32"
        }
      ],
      "name": "queue",
      "outputs": [
        {
          "internalType": "uint256",
          "name": "",
          "type": "uint256"
        }
      ],
      "stateMutability": "nonpayable",
      "type": "function"
    },
    {
      "inputs": [
        {
          "internalType": "uint256",
          "name": "blockNumber",
          "type": "uint256"
        }
      ],
      "name": "quorum",
      "outputs": [
        {
          "internalType": "uint256",
          "name": "",
          "type": "uint256"
        }
      ],
      "stateMutability": "view",
      "type": "function"
    },
    {
      "inputs": [],
      "name": "quorumDenominator",
      "outputs": [
        {
          "internalType": "uint256",
          "name": "",
          "type": "uint256"
        }
      ],
      "stateMutability": "view",
      "type": "function"
    },
    {
      "inputs": [],
      "name": "quorumNumerator",
      "outputs": [
        {
          "internalType": "uint256",
          "name": "",
          "type": "uint256"
        }
      ],
      "stateMutability": "view",
      "type": "function"
    },
    {
      "inputs": [
        {
          "internalType": "address",
          "name": "target",
          "type": "address"
        },
        {
          "internalType": "uint256",
          "name": "value",
          "type": "uint256"
        },
        {
          "internalType": "bytes",
          "name": "data",
          "type": "bytes"
        }
      ],
      "name": "relay",
      "outputs": [],
      "stateMutability": "nonpayable",
      "type": "function"
    },
    {
      "inputs": [
        {
          "internalType": "uint256",
          "name": "newProposalThreshold",
          "type": "uint256"
        }
      ],
      "name": "setProposalThreshold",
      "outputs": [],
      "stateMutability": "nonpayable",
      "type": "function"
    },
    {
      "inputs": [
        {
          "internalType": "uint256",
          "name": "newVotingDelay",
          "type": "uint256"
        }
      ],
      "name": "setVotingDelay",
      "outputs": [],
      "stateMutability": "nonpayable",
      "type": "function"
    },
    {
      "inputs": [
        {
          "internalType": "uint256",
          "name": "newVotingPeriod",
          "type": "uint256"
        }
      ],
      "name": "setVotingPeriod",
      "outputs": [],
      "stateMutability": "nonpayable",
      "type": "function"
    },
    {
      "inputs": [
        {
          "internalType": "uint256",
          "name": "proposalId",
          "type": "uint256"
        }
      ],
      "name": "state",
      "outputs": [
        {
          "internalType": "enum IGovernor.ProposalState",
          "name": "",
          "type": "uint8"
        }
      ],
      "stateMutability": "view",
      "type": "function"
    },
    {
      "inputs": [
        {
          "internalType": "bytes4",
          "name": "interfaceId",
          "type": "bytes4"
        }
      ],
      "name": "supportsInterface",
      "outputs": [
        {
          "internalType": "bool",
          "name": "",
          "type": "bool"
        }
      ],
      "stateMutability": "view",
      "type": "function"
    },
    {
      "inputs": [],
      "name": "timelock",
      "outputs": [
        {
          "internalType": "address",
          "name": "",
          "type": "address"
        }
      ],
      "stateMutability": "view",
      "type": "function"
    },
    {
      "inputs": [],
      "name": "token",
      "outputs": [
        {
          "internalType": "contract IVotes",
          "name": "",
          "type": "address"
        }
      ],
      "stateMutability": "view",
      "type": "function"
    },
    {
      "inputs": [
        {
          "internalType": "uint256",
          "name": "newQuorumNumerator",
          "type": "uint256"
        }
      ],
      "name": "updateQuorumNumerator",
      "outputs": [],
      "stateMutability": "nonpayable",
      "type": "function"
    },
    {
      "inputs": [
        {
          "internalType": "contract TimelockController",
          "name": "newTimelock",
          "type": "address"
        }
      ],
      "name": "updateTimelock",
      "outputs": [],
      "stateMutability": "nonpayable",
      "type": "function"
    },
    {
      "inputs": [],
      "name": "version",
      "outputs": [
        {
          "internalType": "string",
          "name": "",
          "type": "string"
        }
      ],
      "stateMutability": "view",
      "type": "function"
    },
    {
      "inputs": [],
      "name": "votingDelay",
      "outputs": [
        {
          "internalType": "uint256",
          "name": "",
          "type": "uint256"
        }
      ],
      "stateMutability": "view",
      "type": "function"
    },
    {
      "inputs": [],
      "name": "votingPeriod",
      "outputs": [
        {
          "internalType": "uint256",
          "name": "",
          "type": "uint256"
        }
      ],
      "stateMutability": "view",
      "type": "function"
    },
    {
      "stateMutability": "payable",
      "type": "receive"
    }
  ],
  "transactionHash": "0x7fc26a2ff5ba78b5b5e4c8e0cf1b95a41a199c9556ebf18fedce4529b1f23c54",
  "args": [
    "0x5FbDB2315678afecb367f032d93F642f64180aa3",
    "0xDc64a140Aa3E981100a9becA4E685f962f0cF6C9",
    4,
    5,
    1
  ],
  "numDeployments": 1,
  "solcInputHash": "111c7f6211d1e8952dc39efc7cd49738",
  "bytecode": "0x6101606040523480156200001257600080fd5b5060405162006f1b38038062006f1b8339818101604052810190620000389190620005c8565b838386838560006040518060400160405280600a81526020017f4d79476f7665726e6f72000000000000000000000000000000000000000000008152508062000086620001f360201b60201c565b60008280519060200120905060008280519060200120905060007f8b73c3c69bb8fe3d512ecc4cf759cc79239f7b179b0ffacaa9a75d522b39400f90508260e081815250508161010081815250504660a08181525050620000ef8184846200023060201b60201c565b608081815250503073ffffffffffffffffffffffffffffffffffffffff1660c08173ffffffffffffffffffffffffffffffffffffffff1660601b815250508061012081815250505050505050806000908051906020019062000153929190620004d3565b505062000166836200026c60201b60201c565b6200017782620002b360201b60201c565b62000188816200034060201b60201c565b5050508073ffffffffffffffffffffffffffffffffffffffff166101408173ffffffffffffffffffffffffffffffffffffffff1660601b8152505050620001d5816200038760201b60201c565b50620001e7816200042960201b60201c565b505050505050620009d2565b60606040518060400160405280600181526020017f3100000000000000000000000000000000000000000000000000000000000000815250905090565b600083838346306040516020016200024d959493929190620006f8565b6040516020818303038152906040528051906020012090509392505050565b7fc565b045403dc03c2eea82b81a0465edad9e2e7fc4d97e11421c209da93d7a9360045482604051620002a192919062000799565b60405180910390a18060048190555050565b60008111620002f9576040517f08c379a0000000000000000000000000000000000000000000000000000000008152600401620002f09062000777565b60405180910390fd5b7f7e3f7f0708a84de9203036abaa450dccc85ad5ff52f78c170f3edb55cf5e8828600554826040516200032e92919062000799565b60405180910390a18060058190555050565b7fccb45da8d5717e6c4544694297c4ba5cf151d455c9bb0ed4fc7a38411bc05461600654826040516200037592919062000799565b60405180910390a18060068190555050565b62000397620004ca60201b60201c565b811115620003dc576040517f08c379a0000000000000000000000000000000000000000000000000000000008152600401620003d39062000755565b60405180910390fd5b60006008549050816008819055507f0553476bf02ef2726e8ce5ced78d63e26e602e4a2257b1f559418e24b463399781836040516200041d92919062000799565b60405180910390a15050565b7f08f74ea46ef7894f65eabfb5e6e695de773a000b47c529ab559178069b226401600960009054906101000a900473ffffffffffffffffffffffffffffffffffffffff16826040516200047e929190620006cb565b60405180910390a180600960006101000a81548173ffffffffffffffffffffffffffffffffffffffff021916908373ffffffffffffffffffffffffffffffffffffffff16021790555050565b60006064905090565b828054620004e1906200085b565b90600052602060002090601f01602090048101928262000505576000855562000551565b82601f106200052057805160ff191683800117855562000551565b8280016001018555821562000551579182015b828111156200055057825182559160200191906001019062000533565b5b50905062000560919062000564565b5090565b5b808211156200057f57600081600090555060010162000565565b5090565b600081519050620005948162000984565b92915050565b600081519050620005ab816200099e565b92915050565b600081519050620005c281620009b8565b92915050565b600080600080600060a08688031215620005e157600080fd5b6000620005f18882890162000583565b955050602062000604888289016200059a565b94505060406200061788828901620005b1565b93505060606200062a88828901620005b1565b92505060806200063d88828901620005b1565b9150509295509295909350565b6200065581620007d7565b82525050565b6200066681620007ff565b82525050565b60006200067b604383620007c6565b91506200068882620008c0565b606082019050919050565b6000620006a2602783620007c6565b9150620006af8262000935565b604082019050919050565b620006c58162000851565b82525050565b6000604082019050620006e260008301856200064a565b620006f160208301846200064a565b9392505050565b600060a0820190506200070f60008301886200065b565b6200071e60208301876200065b565b6200072d60408301866200065b565b6200073c6060830185620006ba565b6200074b60808301846200064a565b9695505050505050565b6000602082019050818103600083015262000770816200066c565b9050919050565b60006020820190508181036000830152620007928162000693565b9050919050565b6000604082019050620007b06000830185620006ba565b620007bf6020830184620006ba565b9392505050565b600082825260208201905092915050565b6000620007e48262000831565b9050919050565b6000620007f88262000831565b9050919050565b6000819050919050565b60006200081682620007d7565b9050919050565b60006200082a82620007eb565b9050919050565b600073ffffffffffffffffffffffffffffffffffffffff82169050919050565b6000819050919050565b600060028204905060018216806200087457607f821691505b602082108114156200088b576200088a62000891565b5b50919050565b7f4e487b7100000000000000000000000000000000000000000000000000000000600052602260045260246000fd5b7f476f7665726e6f72566f74657351756f72756d4672616374696f6e3a2071756f60008201527f72756d4e756d657261746f72206f7665722071756f72756d44656e6f6d696e6160208201527f746f720000000000000000000000000000000000000000000000000000000000604082015250565b7f476f7665726e6f7253657474696e67733a20766f74696e6720706572696f642060008201527f746f6f206c6f7700000000000000000000000000000000000000000000000000602082015250565b6200098f8162000809565b81146200099b57600080fd5b50565b620009a9816200081d565b8114620009b557600080fd5b50565b620009c38162000851565b8114620009cf57600080fd5b50565b60805160a05160c05160601c60e05161010051610120516101405160601c6164da62000a4160003960008181611d88015281816129b70152612c3901526000612f0e01526000612f5001526000612f2f01526000612e6401526000612eba01526000612ee301526164da6000f3fe60806040526004361061023f5760003560e01c80637d5e81e21161012e578063c59057e4116100ab578063eb9019d41161006f578063eb9019d4146109ac578063ece40cc1146109e9578063f23a6e6114610a12578063f8ce560a14610a4f578063fc0c546a14610a8c57610285565b8063c59057e4146108c5578063d33219b414610902578063dd4e2ba51461092d578063deaaa7cc14610958578063ea0217cf1461098357610285565b8063ab58fb8e116100f2578063ab58fb8e146107ba578063b58131b0146107f7578063bc197c8114610822578063c01f9e371461085f578063c28bc2fa1461089c57610285565b80637d5e81e2146106c157806397c3d334146106fe5780639a802a6d14610729578063a7713a7014610766578063a890c9101461079157610285565b80633932abb1116101bc57806354fd4d501161018057806354fd4d50146105b657806356781388146105e15780635f398a141461061e57806370b0f6601461065b5780637b3c71d31461068457610285565b80633932abb1146104955780633bccf4fd146104c05780633e4f49e6146104fd578063438596321461053a578063544ffc9c1461057757610285565b8063150b7a0211610203578063150b7a0214610383578063160cbed7146103c05780632656227d146103fd5780632d63f6931461042d5780632fe3e2611461046a57610285565b806301ffc9a71461028a57806302a251a3146102c757806303420181146102f257806306f3f9e61461032f57806306fdde031461035857610285565b36610285573073ffffffffffffffffffffffffffffffffffffffff16610263610ab7565b73ffffffffffffffffffffffffffffffffffffffff161461028357600080fd5b005b600080fd5b34801561029657600080fd5b506102b160048036038101906102ac9190614552565b610ac6565b6040516102be9190615186565b60405180910390f35b3480156102d357600080fd5b506102dc610ad8565b6040516102e991906155b1565b60405180910390f35b3480156102fe57600080fd5b5061031960048036038101906103149190614772565b610ae7565b60405161032691906155b1565b60405180910390f35b34801561033b57600080fd5b50610356600480360381019061035191906145a4565b610bcc565b005b34801561036457600080fd5b5061036d610cc8565b60405161037a919061532f565b60405180910390f35b34801561038f57600080fd5b506103aa60048036038101906103a59190614179565b610d5a565b6040516103b791906152de565b60405180910390f35b3480156103cc57600080fd5b506103e760048036038101906103e29190614392565b610d6e565b6040516103f491906155b1565b60405180910390f35b61041760048036038101906104129190614392565b611092565b60405161042491906155b1565b60405180910390f35b34801561043957600080fd5b50610454600480360381019061044f91906145a4565b611277565b60405161046191906155b1565b60405180910390f35b34801561047657600080fd5b5061047f6112e5565b60405161048c91906151a1565b60405180910390f35b3480156104a157600080fd5b506104aa611309565b6040516104b791906155b1565b60405180910390f35b3480156104cc57600080fd5b506104e760048036038101906104e29190614844565b611318565b6040516104f491906155b1565b60405180910390f35b34801561050957600080fd5b50610524600480360381019061051f91906145a4565b6113a2565b6040516105319190615314565b60405180910390f35b34801561054657600080fd5b50610561600480360381019061055c91906145f6565b6113b4565b60405161056e9190615186565b60405180910390f35b34801561058357600080fd5b5061059e600480360381019061059991906145a4565b61141f565b6040516105ad939291906156a5565b60405180910390f35b3480156105c257600080fd5b506105cb611457565b6040516105d8919061532f565b60405180910390f35b3480156105ed57600080fd5b5061060860048036038101906106039190614632565b611494565b60405161061591906155b1565b60405180910390f35b34801561062a57600080fd5b50610645600480360381019061064091906146da565b6114c5565b60405161065291906155b1565b60405180910390f35b34801561066757600080fd5b50610682600480360381019061067d91906145a4565b61152f565b005b34801561069057600080fd5b506106ab60048036038101906106a6919061466e565b61162b565b6040516106b891906155b1565b60405180910390f35b3480156106cd57600080fd5b506106e860048036038101906106e3919061443d565b611693565b6040516106f591906155b1565b60405180910390f35b34801561070a57600080fd5b506107136116ab565b60405161072091906155b1565b60405180910390f35b34801561073557600080fd5b50610750600480360381019061074b919061432b565b6116b4565b60405161075d91906155b1565b60405180910390f35b34801561077257600080fd5b5061077b6116ca565b60405161078891906155b1565b60405180910390f35b34801561079d57600080fd5b506107b860048036038101906107b3919061457b565b6116d4565b005b3480156107c657600080fd5b506107e160048036038101906107dc91906145a4565b6117d0565b6040516107ee91906155b1565b60405180910390f35b34801561080357600080fd5b5061080c6118ac565b60405161081991906155b1565b60405180910390f35b34801561082e57600080fd5b50610849600480360381019061084491906140ba565b6118bb565b60405161085691906152de565b60405180910390f35b34801561086b57600080fd5b50610886600480360381019061088191906145a4565b6118d0565b60405161089391906155b1565b60405180910390f35b3480156108a857600080fd5b506108c360048036038101906108be91906142bf565b61193e565b005b3480156108d157600080fd5b506108ec60048036038101906108e79190614392565b611a84565b6040516108f991906155b1565b60405180910390f35b34801561090e57600080fd5b50610917611ac0565b6040516109249190614fe1565b60405180910390f35b34801561093957600080fd5b50610942611aea565b60405161094f919061532f565b60405180910390f35b34801561096457600080fd5b5061096d611b27565b60405161097a91906151a1565b60405180910390f35b34801561098f57600080fd5b506109aa60048036038101906109a591906145a4565b611b4b565b005b3480156109b857600080fd5b506109d360048036038101906109ce9190614283565b611c47565b6040516109e091906155b1565b60405180910390f35b3480156109f557600080fd5b50610a106004803603810190610a0b91906145a4565b611c63565b005b348015610a1e57600080fd5b50610a396004803603810190610a3491906141f4565b611d5f565b604051610a4691906152de565b60405180910390f35b348015610a5b57600080fd5b50610a766004803603810190610a7191906145a4565b611d74565b604051610a8391906155b1565b60405180910390f35b348015610a9857600080fd5b50610aa1611d86565b604051610aae91906152f9565b60405180910390f35b6000610ac1611daa565b905090565b6000610ad182611dd4565b9050919050565b6000610ae2611e4e565b905090565b600080610b6a610b627fb3b3f3b703cd84ce352197dcff232b1b5d3cfb2025ce47cf04742d0651f1af888c8c8c8c604051610b23929190614f7a565b60405180910390208b80519060200120604051602001610b47959493929190615246565b60405160208183030381529060405280519060200120611e58565b868686611e72565b9050610bbd8a828b8b8b8080601f016020809104026020016040519081016040528093929190818152602001838380828437600081840152601f19601f820116905080830192505050505050508a611e9d565b91505098975050505050505050565b610bd4610ab7565b73ffffffffffffffffffffffffffffffffffffffff16610bf26120a6565b73ffffffffffffffffffffffffffffffffffffffff1614610c48576040517f08c379a0000000000000000000000000000000000000000000000000000000008152600401610c3f90615371565b60405180910390fd5b3073ffffffffffffffffffffffffffffffffffffffff16610c67610ab7565b73ffffffffffffffffffffffffffffffffffffffff1614610cbc576000610c8c6120ae565b604051610c9a929190614f7a565b604051809103902090505b80610cb060026120bb565b14610cba57610ca5565b505b610cc581612197565b50565b606060008054610cd790615cbf565b80601f0160208091040260200160405190810160405280929190818152602001828054610d0390615cbf565b8015610d505780601f10610d2557610100808354040283529160200191610d50565b820191906000526020600020905b815481529060010190602001808311610d3357829003601f168201915b5050505050905090565b600063150b7a0260e01b9050949350505050565b600080610d7d86868686611a84565b905060046007811115610db9577f4e487b7100000000000000000000000000000000000000000000000000000000600052602160045260246000fd5b610dc2826113a2565b6007811115610dfa577f4e487b7100000000000000000000000000000000000000000000000000000000600052602160045260246000fd5b14610e3a576040517f08c379a0000000000000000000000000000000000000000000000000000000008152600401610e31906154f1565b60405180910390fd5b6000600960009054906101000a900473ffffffffffffffffffffffffffffffffffffffff1673ffffffffffffffffffffffffffffffffffffffff1663f27a0c926040518163ffffffff1660e01b815260040160206040518083038186803b158015610ea457600080fd5b505afa158015610eb8573d6000803e3d6000fd5b505050506040513d601f19601f82011682018060405250810190610edc91906145cd565b9050600960009054906101000a900473ffffffffffffffffffffffffffffffffffffffff1673ffffffffffffffffffffffffffffffffffffffff1663b1c5f4278888886000896040518663ffffffff1660e01b8152600401610f429594939291906150a8565b60206040518083038186803b158015610f5a57600080fd5b505afa158015610f6e573d6000803e3d6000fd5b505050506040513d601f19601f82011682018060405250810190610f929190614529565b600a600084815260200190815260200160002081905550600960009054906101000a900473ffffffffffffffffffffffffffffffffffffffff1673ffffffffffffffffffffffffffffffffffffffff16638f2a0bb0888888600089876040518763ffffffff1660e01b815260040161100f96959493929190615110565b600060405180830381600087803b15801561102957600080fd5b505af115801561103d573d6000803e3d6000fd5b505050507f9a2e42fd6722813d69113e7d0079d3d940171428df7373df9c7f7617cfda289282824261106f91906159e8565b60405161107d92919061567c565b60405180910390a18192505050949350505050565b6000806110a186868686611a84565b905060006110ae826113a2565b9050600460078111156110ea577f4e487b7100000000000000000000000000000000000000000000000000000000600052602160045260246000fd5b816007811115611123577f4e487b7100000000000000000000000000000000000000000000000000000000600052602160045260246000fd5b148061119f575060056007811115611164577f4e487b7100000000000000000000000000000000000000000000000000000000600052602160045260246000fd5b81600781111561119d577f4e487b7100000000000000000000000000000000000000000000000000000000600052602160045260246000fd5b145b6111de576040517f08c379a00000000000000000000000000000000000000000000000000000000081526004016111d5906154f1565b60405180910390fd5b600180600084815260200190815260200160002060020160006101000a81548160ff0219169083151502179055507f712ae1383f79ac853f8d882153778e0260ef8f03b504e2866e0593e04d2b291f8260405161123b91906155b1565b60405180910390a1611250828888888861222c565b61125d828888888861235c565b61126a8288888888612370565b8192505050949350505050565b60006112d4600160008481526020019081526020016000206000016040518060200160405290816000820160009054906101000a900467ffffffffffffffff1667ffffffffffffffff1667ffffffffffffffff16815250506123cb565b67ffffffffffffffff169050919050565b7fb3b3f3b703cd84ce352197dcff232b1b5d3cfb2025ce47cf04742d0651f1af8881565b60006113136123d9565b905090565b6000806113796113717f150214d74d59b7d1e90c73fc22ef3d991dd0a76b046543d4d80ab92d2a50328f89896040516020016113569392919061520f565b60405160208183030381529060405280519060200120611e58565b868686611e72565b9050611396878288604051806020016040528060008152506123e3565b91505095945050505050565b60006113ad82612403565b9050919050565b60006007600084815260200190815260200160002060030160008373ffffffffffffffffffffffffffffffffffffffff1673ffffffffffffffffffffffffffffffffffffffff16815260200190815260200160002060009054906101000a900460ff16905092915050565b600080600080600760008681526020019081526020016000209050806000015481600101548260020154935093509350509193909250565b60606040518060400160405280600181526020017f3100000000000000000000000000000000000000000000000000000000000000815250905090565b60008061149f6120a6565b90506114bc848285604051806020016040528060008152506123e3565b91505092915050565b6000806114d06120a6565b905061152387828888888080601f016020809104026020016040519081016040528093929190818152602001838380828437600081840152601f19601f8201169050808301925050505050505087611e9d565b91505095945050505050565b611537610ab7565b73ffffffffffffffffffffffffffffffffffffffff166115556120a6565b73ffffffffffffffffffffffffffffffffffffffff16146115ab576040517f08c379a00000000000000000000000000000000000000000000000000000000081526004016115a290615371565b60405180910390fd5b3073ffffffffffffffffffffffffffffffffffffffff166115ca610ab7565b73ffffffffffffffffffffffffffffffffffffffff161461161f5760006115ef6120ae565b6040516115fd929190614f7a565b604051809103902090505b8061161360026120bb565b1461161d57611608565b505b61162881612641565b50565b6000806116366120a6565b905061168886828787878080601f016020809104026020016040519081016040528093929190818152602001838380828437600081840152601f19601f820116905080830192505050505050506123e3565b915050949350505050565b60006116a185858585612686565b9050949350505050565b60006064905090565b60006116c18484846129b3565b90509392505050565b6000600854905090565b6116dc610ab7565b73ffffffffffffffffffffffffffffffffffffffff166116fa6120a6565b73ffffffffffffffffffffffffffffffffffffffff1614611750576040517f08c379a000000000000000000000000000000000000000000000000000000000815260040161174790615371565b60405180910390fd5b3073ffffffffffffffffffffffffffffffffffffffff1661176f610ab7565b73ffffffffffffffffffffffffffffffffffffffff16146117c45760006117946120ae565b6040516117a2929190614f7a565b604051809103902090505b806117b860026120bb565b146117c2576117ad565b505b6117cd81612a69565b50565b600080600960009054906101000a900473ffffffffffffffffffffffffffffffffffffffff1673ffffffffffffffffffffffffffffffffffffffff1663d45c4435600a6000868152602001908152602001600020546040518263ffffffff1660e01b815260040161184191906151a1565b60206040518083038186803b15801561185957600080fd5b505afa15801561186d573d6000803e3d6000fd5b505050506040513d601f19601f8201168201806040525081019061189191906145cd565b9050600181146118a157806118a4565b60005b915050919050565b60006118b6612b08565b905090565b600063bc197c8160e01b905095945050505050565b600061192d600160008481526020019081526020016000206001016040518060200160405290816000820160009054906101000a900467ffffffffffffffff1667ffffffffffffffff1667ffffffffffffffff16815250506123cb565b67ffffffffffffffff169050919050565b611946610ab7565b73ffffffffffffffffffffffffffffffffffffffff166119646120a6565b73ffffffffffffffffffffffffffffffffffffffff16146119ba576040517f08c379a00000000000000000000000000000000000000000000000000000000081526004016119b190615371565b60405180910390fd5b3073ffffffffffffffffffffffffffffffffffffffff166119d9610ab7565b73ffffffffffffffffffffffffffffffffffffffff1614611a2e5760006119fe6120ae565b604051611a0c929190614f7a565b604051809103902090505b80611a2260026120bb565b14611a2c57611a17565b505b611a7d8483838080601f016020809104026020016040519081016040528093929190818152602001838380828437600081840152601f19601f8201169050808301925050505050505085612b12565b5050505050565b600084848484604051602001611a9d949392919061504e565b6040516020818303038152906040528051906020012060001c9050949350505050565b6000600960009054906101000a900473ffffffffffffffffffffffffffffffffffffffff16905090565b60606040518060400160405280602081526020017f737570706f72743d627261766f2671756f72756d3d666f722c6162737461696e815250905090565b7f150214d74d59b7d1e90c73fc22ef3d991dd0a76b046543d4d80ab92d2a50328f81565b611b53610ab7565b73ffffffffffffffffffffffffffffffffffffffff16611b716120a6565b73ffffffffffffffffffffffffffffffffffffffff1614611bc7576040517f08c379a0000000000000000000000000000000000000000000000000000000008152600401611bbe90615371565b60405180910390fd5b3073ffffffffffffffffffffffffffffffffffffffff16611be6610ab7565b73ffffffffffffffffffffffffffffffffffffffff1614611c3b576000611c0b6120ae565b604051611c19929190614f7a565b604051809103902090505b80611c2f60026120bb565b14611c3957611c24565b505b611c4481612b41565b50565b6000611c5b8383611c56612bc9565b6129b3565b905092915050565b611c6b610ab7565b73ffffffffffffffffffffffffffffffffffffffff16611c896120a6565b73ffffffffffffffffffffffffffffffffffffffff1614611cdf576040517f08c379a0000000000000000000000000000000000000000000000000000000008152600401611cd690615371565b60405180910390fd5b3073ffffffffffffffffffffffffffffffffffffffff16611cfe610ab7565b73ffffffffffffffffffffffffffffffffffffffff1614611d53576000611d236120ae565b604051611d31929190614f7a565b604051809103902090505b80611d4760026120bb565b14611d5157611d3c565b505b611d5c81612be0565b50565b600063f23a6e6160e01b905095945050505050565b6000611d7f82612c25565b9050919050565b7f000000000000000000000000000000000000000000000000000000000000000081565b6000600960009054906101000a900473ffffffffffffffffffffffffffffffffffffffff16905090565b60007f6e665ced000000000000000000000000000000000000000000000000000000007bffffffffffffffffffffffffffffffffffffffffffffffffffffffff1916827bffffffffffffffffffffffffffffffffffffffffffffffffffffffff19161480611e475750611e4682612cfb565b5b9050919050565b6000600554905090565b6000611e6b611e65612e60565b83612f7a565b9050919050565b6000806000611e8387878787612fad565b91509150611e90816130ba565b8192505050949350505050565b60008060016000888152602001908152602001600020905060016007811115611eef577f4e487b7100000000000000000000000000000000000000000000000000000000600052602160045260246000fd5b611ef8886113a2565b6007811115611f30577f4e487b7100000000000000000000000000000000000000000000000000000000600052602160045260246000fd5b14611f70576040517f08c379a0000000000000000000000000000000000000000000000000000000008152600401611f6790615471565b60405180910390fd5b6000611fcf87611fbf846000016040518060200160405290816000820160009054906101000a900467ffffffffffffffff1667ffffffffffffffff1667ffffffffffffffff16815250506123cb565b67ffffffffffffffff16866129b3565b9050611fde888888848861340b565b600084511415612041578673ffffffffffffffffffffffffffffffffffffffff167fb8e138887d0aa13bab447e82de9d5c1777041ecd21ca36ba824ff1e6c07ddda48988848960405161203494939291906156dc565b60405180910390a2612098565b8673ffffffffffffffffffffffffffffffffffffffff167fe2babfbac5889a709b63bb7f598b324e08bc5a4fb9ec647fb3cbc9ec07eb8712898884898960405161208f959493929190615728565b60405180910390a25b809250505095945050505050565b600033905090565b3660008036915091509091565b60006120c682613684565b156120fd576040517f3db2a12a00000000000000000000000000000000000000000000000000000000815260040160405180910390fd5b60008260000160009054906101000a9004600f0b905082600101600082600f0b600f0b815260200190815260200160002054915082600101600082600f0b600f0b815260200190815260200160002060009055600181018360000160006101000a8154816fffffffffffffffffffffffffffffffff0219169083600f0b6fffffffffffffffffffffffffffffffff16021790555050919050565b61219f6116ab565b8111156121e1576040517f08c379a00000000000000000000000000000000000000000000000000000000081526004016121d890615391565b60405180910390fd5b60006008549050816008819055507f0553476bf02ef2726e8ce5ced78d63e26e602e4a2257b1f559418e24b4633997818360405161222092919061567c565b60405180910390a15050565b3073ffffffffffffffffffffffffffffffffffffffff1661224b610ab7565b73ffffffffffffffffffffffffffffffffffffffff16146123555760005b8451811015612353573073ffffffffffffffffffffffffffffffffffffffff168582815181106122c2577f4e487b7100000000000000000000000000000000000000000000000000000000600052603260045260246000fd5b602002602001015173ffffffffffffffffffffffffffffffffffffffff16141561234257612341838281518110612322577f4e487b7100000000000000000000000000000000000000000000000000000000600052603260045260246000fd5b60200260200101518051906020012060026136b990919063ffffffff16565b5b8061234c90615d22565b9050612269565b505b5050505050565b6123698585858585613735565b5050505050565b3073ffffffffffffffffffffffffffffffffffffffff1661238f610ab7565b73ffffffffffffffffffffffffffffffffffffffff16146123c4576123b46002613684565b6123c3576123c260026137d3565b5b5b5050505050565b600081600001519050919050565b6000600454905090565b60006123f9858585856123f4612bc9565b611e9d565b9050949350505050565b60008061240f83613854565b90506004600781111561244b577f4e487b7100000000000000000000000000000000000000000000000000000000600052602160045260246000fd5b816007811115612484577f4e487b7100000000000000000000000000000000000000000000000000000000600052602160045260246000fd5b14612492578091505061263c565b6000600a60008581526020019081526020016000205490506000801b8114156124bf57819250505061263c565b600960009054906101000a900473ffffffffffffffffffffffffffffffffffffffff1673ffffffffffffffffffffffffffffffffffffffff16632ab0f529826040518263ffffffff1660e01b815260040161251a91906151a1565b60206040518083038186803b15801561253257600080fd5b505afa158015612546573d6000803e3d6000fd5b505050506040513d601f19601f8201168201806040525081019061256a9190614500565b1561257a5760079250505061263c565b600960009054906101000a900473ffffffffffffffffffffffffffffffffffffffff1673ffffffffffffffffffffffffffffffffffffffff1663584b153e826040518263ffffffff1660e01b81526004016125d591906151a1565b60206040518083038186803b1580156125ed57600080fd5b505afa158015612601573d6000803e3d6000fd5b505050506040513d601f19601f820116820180604052508101906126259190614500565b156126355760059250505061263c565b6002925050505b919050565b7fc565b045403dc03c2eea82b81a0465edad9e2e7fc4d97e11421c209da93d7a936004548260405161267492919061567c565b60405180910390a18060048190555050565b60006126906118ac565b6126ad61269b6120a6565b6001436126a89190615b07565b611c47565b10156126ee576040517f08c379a00000000000000000000000000000000000000000000000000000000081526004016126e590615591565b60405180910390fd5b60006127038686868680519060200120611a84565b90508451865114612749576040517f08c379a0000000000000000000000000000000000000000000000000000000008152600401612740906153d1565b60405180910390fd5b835186511461278d576040517f08c379a0000000000000000000000000000000000000000000000000000000008152600401612784906153d1565b60405180910390fd5b60008651116127d1576040517f08c379a00000000000000000000000000000000000000000000000000000000081526004016127c890615491565b60405180910390fd5b6000600160008381526020019081526020016000209050612831816000016040518060200160405290816000820160009054906101000a900467ffffffffffffffff1667ffffffffffffffff1667ffffffffffffffff1681525050613969565b612870576040517f08c379a000000000000000000000000000000000000000000000000000000000815260040161286790615551565b60405180910390fd5b600061288261287d611309565b613983565b61288b43613983565b6128959190615a3e565b905060006128a96128a4610ad8565b613983565b826128b49190615a3e565b90506128cc82846000016139da90919063ffffffff16565b6128e281846001016139da90919063ffffffff16565b7f7d84a6263ae0d98d3329bd7b46bb4e8d6f98cd35a7adb45c274c8b7fd5ebd5e08461290c6120a6565b8b8b8d5167ffffffffffffffff81111561294f577f4e487b7100000000000000000000000000000000000000000000000000000000600052604160045260246000fd5b60405190808252806020026020018201604052801561298257816020015b606081526020019060019003908161296d5790505b508c88888e60405161299c999897969594939291906155cc565b60405180910390a183945050505050949350505050565b60007f000000000000000000000000000000000000000000000000000000000000000073ffffffffffffffffffffffffffffffffffffffff16633a46b1a885856040518363ffffffff1660e01b8152600401612a10929190615025565b60206040518083038186803b158015612a2857600080fd5b505afa158015612a3c573d6000803e3d6000fd5b505050506040513d601f19601f82011682018060405250810190612a6091906145cd565b90509392505050565b7f08f74ea46ef7894f65eabfb5e6e695de773a000b47c529ab559178069b226401600960009054906101000a900473ffffffffffffffffffffffffffffffffffffffff1682604051612abc929190614ffc565b60405180910390a180600960006101000a81548173ffffffffffffffffffffffffffffffffffffffff021916908373ffffffffffffffffffffffffffffffffffffffff16021790555050565b6000600654905090565b6060612b3884848460405180606001604052806029815260200161647c60299139613a09565b90509392505050565b60008111612b84576040517f08c379a0000000000000000000000000000000000000000000000000000000008152600401612b7b906153f1565b60405180910390fd5b7f7e3f7f0708a84de9203036abaa450dccc85ad5ff52f78c170f3edb55cf5e882860055482604051612bb792919061567c565b60405180910390a18060058190555050565b606060405180602001604052806000815250905090565b7fccb45da8d5717e6c4544694297c4ba5cf151d455c9bb0ed4fc7a38411bc0546160065482604051612c1392919061567c565b60405180910390a18060068190555050565b6000612c2f6116ab565b612c376116ca565b7f000000000000000000000000000000000000000000000000000000000000000073ffffffffffffffffffffffffffffffffffffffff16638e539e8c856040518263ffffffff1660e01b8152600401612c9091906155b1565b60206040518083038186803b158015612ca857600080fd5b505afa158015612cbc573d6000803e3d6000fd5b505050506040513d601f19601f82011682018060405250810190612ce091906145cd565b612cea9190615aad565b612cf49190615a7c565b9050919050565b6000639a802a6d60e01b630342018160e01b635f398a1460e01b7f79dd796f000000000000000000000000000000000000000000000000000000001818187bffffffffffffffffffffffffffffffffffffffffffffffffffffffff1916827bffffffffffffffffffffffffffffffffffffffffffffffffffffffff19161480612de157507f79dd796f000000000000000000000000000000000000000000000000000000007bffffffffffffffffffffffffffffffffffffffffffffffffffffffff1916827bffffffffffffffffffffffffffffffffffffffffffffffffffffffff1916145b80612e4957507f4e2312e0000000000000000000000000000000000000000000000000000000007bffffffffffffffffffffffffffffffffffffffffffffffffffffffff1916827bffffffffffffffffffffffffffffffffffffffffffffffffffffffff1916145b80612e595750612e5882613b1d565b5b9050919050565b60007f000000000000000000000000000000000000000000000000000000000000000073ffffffffffffffffffffffffffffffffffffffff163073ffffffffffffffffffffffffffffffffffffffff16148015612edc57507f000000000000000000000000000000000000000000000000000000000000000046145b15612f09577f00000000000000000000000000000000000000000000000000000000000000009050612f77565b612f747f00000000000000000000000000000000000000000000000000000000000000007f00000000000000000000000000000000000000000000000000000000000000007f0000000000000000000000000000000000000000000000000000000000000000613b87565b90505b90565b60008282604051602001612f8f929190614faa565b60405160208183030381529060405280519060200120905092915050565b6000807f7fffffffffffffffffffffffffffffff5d576e7357a4501ddfe92f46681b20a08360001c1115612fe85760006003915091506130b1565b601b8560ff16141580156130005750601c8560ff1614155b156130125760006004915091506130b1565b6000600187878787604051600081526020016040526040516130379493929190615299565b6020604051602081039080840390855afa158015613059573d6000803e3d6000fd5b505050602060405103519050600073ffffffffffffffffffffffffffffffffffffffff168173ffffffffffffffffffffffffffffffffffffffff1614156130a8576000600192509250506130b1565b80600092509250505b94509492505050565b600060048111156130f4577f4e487b7100000000000000000000000000000000000000000000000000000000600052602160045260246000fd5b81600481111561312d577f4e487b7100000000000000000000000000000000000000000000000000000000600052602160045260246000fd5b141561313857613408565b60016004811115613172577f4e487b7100000000000000000000000000000000000000000000000000000000600052602160045260246000fd5b8160048111156131ab577f4e487b7100000000000000000000000000000000000000000000000000000000600052602160045260246000fd5b14156131ec576040517f08c379a00000000000000000000000000000000000000000000000000000000081526004016131e390615351565b60405180910390fd5b60026004811115613226577f4e487b7100000000000000000000000000000000000000000000000000000000600052602160045260246000fd5b81600481111561325f577f4e487b7100000000000000000000000000000000000000000000000000000000600052602160045260246000fd5b14156132a0576040517f08c379a0000000000000000000000000000000000000000000000000000000008152600401613297906153b1565b60405180910390fd5b600360048111156132da577f4e487b7100000000000000000000000000000000000000000000000000000000600052602160045260246000fd5b816004811115613313577f4e487b7100000000000000000000000000000000000000000000000000000000600052602160045260246000fd5b1415613354576040517f08c379a000000000000000000000000000000000000000000000000000000000815260040161334b90615411565b60405180910390fd5b60048081111561338d577f4e487b7100000000000000000000000000000000000000000000000000000000600052602160045260246000fd5b8160048111156133c6577f4e487b7100000000000000000000000000000000000000000000000000000000600052602160045260246000fd5b1415613407576040517f08c379a00000000000000000000000000000000000000000000000000000000081526004016133fe906154b1565b60405180910390fd5b5b50565b60006007600087815260200190815260200160002090508060030160008673ffffffffffffffffffffffffffffffffffffffff1673ffffffffffffffffffffffffffffffffffffffff16815260200190815260200160002060009054906101000a900460ff16156134b1576040517f08c379a00000000000000000000000000000000000000000000000000000000081526004016134a890615431565b60405180910390fd5b60018160030160008773ffffffffffffffffffffffffffffffffffffffff1673ffffffffffffffffffffffffffffffffffffffff16815260200190815260200160002060006101000a81548160ff02191690831515021790555060006002811115613545577f4e487b7100000000000000000000000000000000000000000000000000000000600052602160045260246000fd5b60ff168460ff161415613572578281600001600082825461356691906159e8565b9250508190555061367c565b600160028111156135ac577f4e487b7100000000000000000000000000000000000000000000000000000000600052602160045260246000fd5b60ff168460ff1614156135d957828160010160008282546135cd91906159e8565b9250508190555061367b565b600280811115613612577f4e487b7100000000000000000000000000000000000000000000000000000000600052602160045260246000fd5b60ff168460ff16141561363f578281600201600082825461363391906159e8565b9250508190555061367a565b6040517f08c379a000000000000000000000000000000000000000000000000000000000815260040161367190615531565b60405180910390fd5b5b5b505050505050565b60008160000160009054906101000a9004600f0b600f0b8260000160109054906101000a9004600f0b600f0b13159050919050565b60008260000160109054906101000a9004600f0b90508183600101600083600f0b600f0b815260200190815260200160002081905550600181018360000160106101000a8154816fffffffffffffffffffffffffffffffff0219169083600f0b6fffffffffffffffffffffffffffffffff160217905550505050565b600960009054906101000a900473ffffffffffffffffffffffffffffffffffffffff1673ffffffffffffffffffffffffffffffffffffffff1663e38335e5348686866000876040518763ffffffff1660e01b815260040161379a9594939291906150a8565b6000604051808303818588803b1580156137b357600080fd5b505af11580156137c7573d6000803e3d6000fd5b50505050505050505050565b60008160000160006101000a8154816fffffffffffffffffffffffffffffffff0219169083600f0b6fffffffffffffffffffffffffffffffff16021790555060008160000160106101000a8154816fffffffffffffffffffffffffffffffff0219169083600f0b6fffffffffffffffffffffffffffffffff16021790555050565b6000806001600084815260200190815260200160002090508060020160009054906101000a900460ff161561388d576007915050613964565b8060020160019054906101000a900460ff16156138ae576002915050613964565b60006138b984611277565b905060008114156138ff576040517f08c379a00000000000000000000000000000000000000000000000000000000081526004016138f690615511565b60405180910390fd5b43811061391157600092505050613964565b600061391c856118d0565b90504381106139315760019350505050613964565b61393a85613bc1565b801561394b575061394a85613c08565b5b1561395c5760049350505050613964565b600393505050505b919050565b600080826000015167ffffffffffffffff16149050919050565b600067ffffffffffffffff80168211156139d2576040517f08c379a00000000000000000000000000000000000000000000000000000000081526004016139c9906154d1565b60405180910390fd5b819050919050565b808260000160006101000a81548167ffffffffffffffff021916908367ffffffffffffffff1602179055505050565b606082471015613a4e576040517f08c379a0000000000000000000000000000000000000000000000000000000008152600401613a4590615451565b60405180910390fd5b613a5785613c33565b613a96576040517f08c379a0000000000000000000000000000000000000000000000000000000008152600401613a8d90615571565b60405180910390fd5b6000808673ffffffffffffffffffffffffffffffffffffffff168587604051613abf9190614f93565b60006040518083038185875af1925050503d8060008114613afc576040519150601f19603f3d011682016040523d82523d6000602084013e613b01565b606091505b5091509150613b11828286613c56565b92505050949350505050565b60007f01ffc9a7000000000000000000000000000000000000000000000000000000007bffffffffffffffffffffffffffffffffffffffffffffffffffffffff1916827bffffffffffffffffffffffffffffffffffffffffffffffffffffffff1916149050919050565b60008383834630604051602001613ba29594939291906151bc565b6040516020818303038152906040528051906020012090509392505050565b60008060076000848152602001908152602001600020905080600201548160010154613bed91906159e8565b613bfe613bf985611277565b611d74565b1115915050919050565b6000806007600084815260200190815260200160002090508060000154816001015411915050919050565b6000808273ffffffffffffffffffffffffffffffffffffffff163b119050919050565b60608315613c6657829050613cb6565b600083511115613c795782518084602001fd5b816040517f08c379a0000000000000000000000000000000000000000000000000000000008152600401613cad919061532f565b60405180910390fd5b9392505050565b6000613cd0613ccb846157ae565b615789565b90508083825260208201905082856020860282011115613cef57600080fd5b60005b85811015613d1f5781613d058882613e97565b845260208401935060208301925050600181019050613cf2565b5050509392505050565b6000613d3c613d37846157da565b615789565b90508083825260208201905082856020860282011115613d5b57600080fd5b60005b85811015613da557813567ffffffffffffffff811115613d7d57600080fd5b808601613d8a8982613fc8565b85526020850194506020840193505050600181019050613d5e565b5050509392505050565b6000613dc2613dbd84615806565b615789565b90508083825260208201905082856020860282011115613de157600080fd5b60005b85811015613e115781613df7888261407b565b845260208401935060208301925050600181019050613de4565b5050509392505050565b6000613e2e613e2984615832565b615789565b905082815260208101848484011115613e4657600080fd5b613e51848285615c7d565b509392505050565b6000613e6c613e6784615863565b615789565b905082815260208101848484011115613e8457600080fd5b613e8f848285615c7d565b509392505050565b600081359050613ea6816163da565b92915050565b600082601f830112613ebd57600080fd5b8135613ecd848260208601613cbd565b91505092915050565b600082601f830112613ee757600080fd5b8135613ef7848260208601613d29565b91505092915050565b600082601f830112613f1157600080fd5b8135613f21848260208601613daf565b91505092915050565b600081519050613f39816163f1565b92915050565b600081359050613f4e81616408565b92915050565b600081519050613f6381616408565b92915050565b600081359050613f788161641f565b92915050565b60008083601f840112613f9057600080fd5b8235905067ffffffffffffffff811115613fa957600080fd5b602083019150836001820283011115613fc157600080fd5b9250929050565b600082601f830112613fd957600080fd5b8135613fe9848260208601613e1b565b91505092915050565b60008135905061400181616436565b92915050565b60008083601f84011261401957600080fd5b8235905067ffffffffffffffff81111561403257600080fd5b60208301915083600182028301111561404a57600080fd5b9250929050565b600082601f83011261406257600080fd5b8135614072848260208601613e59565b91505092915050565b60008135905061408a8161644d565b92915050565b60008151905061409f8161644d565b92915050565b6000813590506140b481616464565b92915050565b600080600080600060a086880312156140d257600080fd5b60006140e088828901613e97565b95505060206140f188828901613e97565b945050604086013567ffffffffffffffff81111561410e57600080fd5b61411a88828901613f00565b935050606086013567ffffffffffffffff81111561413757600080fd5b61414388828901613f00565b925050608086013567ffffffffffffffff81111561416057600080fd5b61416c88828901613fc8565b9150509295509295909350565b6000806000806080858703121561418f57600080fd5b600061419d87828801613e97565b94505060206141ae87828801613e97565b93505060406141bf8782880161407b565b925050606085013567ffffffffffffffff8111156141dc57600080fd5b6141e887828801613fc8565b91505092959194509250565b600080600080600060a0868803121561420c57600080fd5b600061421a88828901613e97565b955050602061422b88828901613e97565b945050604061423c8882890161407b565b935050606061424d8882890161407b565b925050608086013567ffffffffffffffff81111561426a57600080fd5b61427688828901613fc8565b9150509295509295909350565b6000806040838503121561429657600080fd5b60006142a485828601613e97565b92505060206142b58582860161407b565b9150509250929050565b600080600080606085870312156142d557600080fd5b60006142e387828801613e97565b94505060206142f48782880161407b565b935050604085013567ffffffffffffffff81111561431157600080fd5b61431d87828801613f7e565b925092505092959194509250565b60008060006060848603121561434057600080fd5b600061434e86828701613e97565b935050602061435f8682870161407b565b925050604084013567ffffffffffffffff81111561437c57600080fd5b61438886828701613fc8565b9150509250925092565b600080600080608085870312156143a857600080fd5b600085013567ffffffffffffffff8111156143c257600080fd5b6143ce87828801613eac565b945050602085013567ffffffffffffffff8111156143eb57600080fd5b6143f787828801613f00565b935050604085013567ffffffffffffffff81111561441457600080fd5b61442087828801613ed6565b925050606061443187828801613f3f565b91505092959194509250565b6000806000806080858703121561445357600080fd5b600085013567ffffffffffffffff81111561446d57600080fd5b61447987828801613eac565b945050602085013567ffffffffffffffff81111561449657600080fd5b6144a287828801613f00565b935050604085013567ffffffffffffffff8111156144bf57600080fd5b6144cb87828801613ed6565b925050606085013567ffffffffffffffff8111156144e857600080fd5b6144f487828801614051565b91505092959194509250565b60006020828403121561451257600080fd5b600061452084828501613f2a565b91505092915050565b60006020828403121561453b57600080fd5b600061454984828501613f54565b91505092915050565b60006020828403121561456457600080fd5b600061457284828501613f69565b91505092915050565b60006020828403121561458d57600080fd5b600061459b84828501613ff2565b91505092915050565b6000602082840312156145b657600080fd5b60006145c48482850161407b565b91505092915050565b6000602082840312156145df57600080fd5b60006145ed84828501614090565b91505092915050565b6000806040838503121561460957600080fd5b60006146178582860161407b565b925050602061462885828601613e97565b9150509250929050565b6000806040838503121561464557600080fd5b60006146538582860161407b565b9250506020614664858286016140a5565b9150509250929050565b6000806000806060858703121561468457600080fd5b60006146928782880161407b565b94505060206146a3878288016140a5565b935050604085013567ffffffffffffffff8111156146c057600080fd5b6146cc87828801614007565b925092505092959194509250565b6000806000806000608086880312156146f257600080fd5b60006147008882890161407b565b9550506020614711888289016140a5565b945050604086013567ffffffffffffffff81111561472e57600080fd5b61473a88828901614007565b9350935050606086013567ffffffffffffffff81111561475957600080fd5b61476588828901613fc8565b9150509295509295909350565b60008060008060008060008060e0898b03121561478e57600080fd5b600061479c8b828c0161407b565b98505060206147ad8b828c016140a5565b975050604089013567ffffffffffffffff8111156147ca57600080fd5b6147d68b828c01614007565b9650965050606089013567ffffffffffffffff8111156147f557600080fd5b6148018b828c01613fc8565b94505060806148128b828c016140a5565b93505060a06148238b828c01613f3f565b92505060c06148348b828c01613f3f565b9150509295985092959890939650565b600080600080600060a0868803121561485c57600080fd5b600061486a8882890161407b565b955050602061487b888289016140a5565b945050604061488c888289016140a5565b935050606061489d88828901613f3f565b92505060806148ae88828901613f3f565b9150509295509295909350565b60006148c78383614913565b60208301905092915050565b60006148df8383614b40565b905092915050565b60006148f38383614c10565b905092915050565b60006149078383614f3e565b60208301905092915050565b61491c81615b3b565b82525050565b61492b81615b3b565b82525050565b600061493c826158d4565b614946818561594a565b935061495183615894565b8060005b8381101561498257815161496988826148bb565b975061497483615916565b925050600181019050614955565b5085935050505092915050565b600061499a826158df565b6149a4818561595b565b9350836020820285016149b6856158a4565b8060005b858110156149f257848403895281516149d385826148d3565b94506149de83615923565b925060208a019950506001810190506149ba565b50829750879550505050505092915050565b6000614a0f826158ea565b614a19818561596c565b935083602082028501614a2b856158b4565b8060005b85811015614a675784840389528151614a4885826148e7565b9450614a5383615930565b925060208a01995050600181019050614a2f565b50829750879550505050505092915050565b6000614a84826158f5565b614a8e818561597d565b9350614a99836158c4565b8060005b83811015614aca578151614ab188826148fb565b9750614abc8361593d565b925050600181019050614a9d565b5085935050505092915050565b614ae081615b5f565b82525050565b614aef81615b6b565b82525050565b614b06614b0182615b6b565b615d6b565b82525050565b614b1581615b75565b82525050565b6000614b2783856159b0565b9350614b34838584615c7d565b82840190509392505050565b6000614b4b82615900565b614b55818561598e565b9350614b65818560208601615c8c565b614b6e81615e60565b840191505092915050565b6000614b8482615900565b614b8e818561599f565b9350614b9e818560208601615c8c565b614ba781615e60565b840191505092915050565b6000614bbd82615900565b614bc781856159b0565b9350614bd7818560208601615c8c565b80840191505092915050565b614bec81615c1b565b82525050565b614bfb81615c3f565b82525050565b614c0a81615c51565b82525050565b6000614c1b8261590b565b614c2581856159bb565b9350614c35818560208601615c8c565b614c3e81615e60565b840191505092915050565b6000614c548261590b565b614c5e81856159cc565b9350614c6e818560208601615c8c565b614c7781615e60565b840191505092915050565b6000614c8f6018836159cc565b9150614c9a82615e7e565b602082019050919050565b6000614cb26018836159cc565b9150614cbd82615ea7565b602082019050919050565b6000614cd56043836159cc565b9150614ce082615ed0565b606082019050919050565b6000614cf8601f836159cc565b9150614d0382615f45565b602082019050919050565b6000614d1b6002836159dd565b9150614d2682615f6e565b600282019050919050565b6000614d3e6021836159cc565b9150614d4982615f97565b604082019050919050565b6000614d616027836159cc565b9150614d6c82615fe6565b604082019050919050565b6000614d846022836159cc565b9150614d8f82616035565b604082019050919050565b6000614da76027836159cc565b9150614db282616084565b604082019050919050565b6000614dca6026836159cc565b9150614dd5826160d3565b604082019050919050565b6000614ded6023836159cc565b9150614df882616122565b604082019050919050565b6000614e106018836159cc565b9150614e1b82616171565b602082019050919050565b6000614e336022836159cc565b9150614e3e8261619a565b604082019050919050565b6000614e566026836159cc565b9150614e61826161e9565b604082019050919050565b6000614e796021836159cc565b9150614e8482616238565b604082019050919050565b6000614e9c601d836159cc565b9150614ea782616287565b602082019050919050565b6000614ebf6035836159cc565b9150614eca826162b0565b604082019050919050565b6000614ee26021836159cc565b9150614eed826162ff565b604082019050919050565b6000614f05601d836159cc565b9150614f108261634e565b602082019050919050565b6000614f286031836159cc565b9150614f3382616377565b604082019050919050565b614f4781615bf0565b82525050565b614f5681615bf0565b82525050565b614f6581615c6b565b82525050565b614f7481615c0e565b82525050565b6000614f87828486614b1b565b91508190509392505050565b6000614f9f8284614bb2565b915081905092915050565b6000614fb582614d0e565b9150614fc18285614af5565b602082019150614fd18284614af5565b6020820191508190509392505050565b6000602082019050614ff66000830184614922565b92915050565b60006040820190506150116000830185614922565b61501e6020830184614922565b9392505050565b600060408201905061503a6000830185614922565b6150476020830184614f4d565b9392505050565b600060808201905081810360008301526150688187614931565b9050818103602083015261507c8186614a79565b90508181036040830152615090818561498f565b905061509f6060830184614ae6565b95945050505050565b600060a08201905081810360008301526150c28188614931565b905081810360208301526150d68187614a79565b905081810360408301526150ea818661498f565b90506150f96060830185614c01565b6151066080830184614ae6565b9695505050505050565b600060c082019050818103600083015261512a8189614931565b9050818103602083015261513e8188614a79565b90508181036040830152615152818761498f565b90506151616060830186614c01565b61516e6080830185614ae6565b61517b60a0830184614f4d565b979650505050505050565b600060208201905061519b6000830184614ad7565b92915050565b60006020820190506151b66000830184614ae6565b92915050565b600060a0820190506151d16000830188614ae6565b6151de6020830187614ae6565b6151eb6040830186614ae6565b6151f86060830185614f4d565b6152056080830184614922565b9695505050505050565b60006060820190506152246000830186614ae6565b6152316020830185614f4d565b61523e6040830184614f6b565b949350505050565b600060a08201905061525b6000830188614ae6565b6152686020830187614f4d565b6152756040830186614f6b565b6152826060830185614ae6565b61528f6080830184614ae6565b9695505050505050565b60006080820190506152ae6000830187614ae6565b6152bb6020830186614f6b565b6152c86040830185614ae6565b6152d56060830184614ae6565b95945050505050565b60006020820190506152f36000830184614b0c565b92915050565b600060208201905061530e6000830184614be3565b92915050565b60006020820190506153296000830184614bf2565b92915050565b600060208201905081810360008301526153498184614c49565b905092915050565b6000602082019050818103600083015261536a81614c82565b9050919050565b6000602082019050818103600083015261538a81614ca5565b9050919050565b600060208201905081810360008301526153aa81614cc8565b9050919050565b600060208201905081810360008301526153ca81614ceb565b9050919050565b600060208201905081810360008301526153ea81614d31565b9050919050565b6000602082019050818103600083015261540a81614d54565b9050919050565b6000602082019050818103600083015261542a81614d77565b9050919050565b6000602082019050818103600083015261544a81614d9a565b9050919050565b6000602082019050818103600083015261546a81614dbd565b9050919050565b6000602082019050818103600083015261548a81614de0565b9050919050565b600060208201905081810360008301526154aa81614e03565b9050919050565b600060208201905081810360008301526154ca81614e26565b9050919050565b600060208201905081810360008301526154ea81614e49565b9050919050565b6000602082019050818103600083015261550a81614e6c565b9050919050565b6000602082019050818103600083015261552a81614e8f565b9050919050565b6000602082019050818103600083015261554a81614eb2565b9050919050565b6000602082019050818103600083015261556a81614ed5565b9050919050565b6000602082019050818103600083015261558a81614ef8565b9050919050565b600060208201905081810360008301526155aa81614f1b565b9050919050565b60006020820190506155c66000830184614f4d565b92915050565b6000610120820190506155e2600083018c614f4d565b6155ef602083018b614922565b8181036040830152615601818a614931565b905081810360608301526156158189614a79565b905081810360808301526156298188614a04565b905081810360a083015261563d818761498f565b905061564c60c0830186614f5c565b61565960e0830185614f5c565b81810361010083015261566c8184614c49565b90509a9950505050505050505050565b60006040820190506156916000830185614f4d565b61569e6020830184614f4d565b9392505050565b60006060820190506156ba6000830186614f4d565b6156c76020830185614f4d565b6156d46040830184614f4d565b949350505050565b60006080820190506156f16000830187614f4d565b6156fe6020830186614f6b565b61570b6040830185614f4d565b818103606083015261571d8184614c49565b905095945050505050565b600060a08201905061573d6000830188614f4d565b61574a6020830187614f6b565b6157576040830186614f4d565b81810360608301526157698185614c49565b9050818103608083015261577d8184614b79565b90509695505050505050565b60006157936157a4565b905061579f8282615cf1565b919050565b6000604051905090565b600067ffffffffffffffff8211156157c9576157c8615e31565b5b602082029050602081019050919050565b600067ffffffffffffffff8211156157f5576157f4615e31565b5b602082029050602081019050919050565b600067ffffffffffffffff82111561582157615820615e31565b5b602082029050602081019050919050565b600067ffffffffffffffff82111561584d5761584c615e31565b5b61585682615e60565b9050602081019050919050565b600067ffffffffffffffff82111561587e5761587d615e31565b5b61588782615e60565b9050602081019050919050565b6000819050602082019050919050565b6000819050602082019050919050565b6000819050602082019050919050565b6000819050602082019050919050565b600081519050919050565b600081519050919050565b600081519050919050565b600081519050919050565b600081519050919050565b600081519050919050565b6000602082019050919050565b6000602082019050919050565b6000602082019050919050565b6000602082019050919050565b600082825260208201905092915050565b600082825260208201905092915050565b600082825260208201905092915050565b600082825260208201905092915050565b600082825260208201905092915050565b600082825260208201905092915050565b600081905092915050565b600082825260208201905092915050565b600082825260208201905092915050565b600081905092915050565b60006159f382615bf0565b91506159fe83615bf0565b9250827fffffffffffffffffffffffffffffffffffffffffffffffffffffffffffffffff03821115615a3357615a32615d75565b5b828201905092915050565b6000615a4982615bfa565b9150615a5483615bfa565b92508267ffffffffffffffff03821115615a7157615a70615d75565b5b828201905092915050565b6000615a8782615bf0565b9150615a9283615bf0565b925082615aa257615aa1615da4565b5b828204905092915050565b6000615ab882615bf0565b9150615ac383615bf0565b9250817fffffffffffffffffffffffffffffffffffffffffffffffffffffffffffffffff0483118215151615615afc57615afb615d75565b5b828202905092915050565b6000615b1282615bf0565b9150615b1d83615bf0565b925082821015615b3057615b2f615d75565b5b828203905092915050565b6000615b4682615bd0565b9050919050565b6000615b5882615bd0565b9050919050565b60008115159050919050565b6000819050919050565b60007fffffffff0000000000000000000000000000000000000000000000000000000082169050919050565b6000615bac82615b4d565b9050919050565b6000819050615bc1826163c6565b919050565b6000819050919050565b600073ffffffffffffffffffffffffffffffffffffffff82169050919050565b6000819050919050565b600067ffffffffffffffff82169050919050565b600060ff82169050919050565b6000615c2682615c2d565b9050919050565b6000615c3882615bd0565b9050919050565b6000615c4a82615bb3565b9050919050565b6000615c64615c5f83615bc6565b615e71565b9050919050565b6000615c7682615bfa565b9050919050565b82818337600083830152505050565b60005b83811015615caa578082015181840152602081019050615c8f565b83811115615cb9576000848401525b50505050565b60006002820490506001821680615cd757607f821691505b60208210811415615ceb57615cea615e02565b5b50919050565b615cfa82615e60565b810181811067ffffffffffffffff82111715615d1957615d18615e31565b5b80604052505050565b6000615d2d82615bf0565b91507fffffffffffffffffffffffffffffffffffffffffffffffffffffffffffffffff821415615d6057615d5f615d75565b5b600182019050919050565b6000819050919050565b7f4e487b7100000000000000000000000000000000000000000000000000000000600052601160045260246000fd5b7f4e487b7100000000000000000000000000000000000000000000000000000000600052601260045260246000fd5b7f4e487b7100000000000000000000000000000000000000000000000000000000600052602160045260246000fd5b7f4e487b7100000000000000000000000000000000000000000000000000000000600052602260045260246000fd5b7f4e487b7100000000000000000000000000000000000000000000000000000000600052604160045260246000fd5b6000601f19601f8301169050919050565b60008160001b9050919050565b7f45434453413a20696e76616c6964207369676e61747572650000000000000000600082015250565b7f476f7665726e6f723a206f6e6c79476f7665726e616e63650000000000000000600082015250565b7f476f7665726e6f72566f74657351756f72756d4672616374696f6e3a2071756f60008201527f72756d4e756d657261746f72206f7665722071756f72756d44656e6f6d696e6160208201527f746f720000000000000000000000000000000000000000000000000000000000604082015250565b7f45434453413a20696e76616c6964207369676e6174757265206c656e67746800600082015250565b7f1901000000000000000000000000000000000000000000000000000000000000600082015250565b7f476f7665726e6f723a20696e76616c69642070726f706f73616c206c656e677460008201527f6800000000000000000000000000000000000000000000000000000000000000602082015250565b7f476f7665726e6f7253657474696e67733a20766f74696e6720706572696f642060008201527f746f6f206c6f7700000000000000000000000000000000000000000000000000602082015250565b7f45434453413a20696e76616c6964207369676e6174757265202773272076616c60008201527f7565000000000000000000000000000000000000000000000000000000000000602082015250565b7f476f7665726e6f72566f74696e6753696d706c653a20766f746520616c72656160008201527f6479206361737400000000000000000000000000000000000000000000000000602082015250565b7f416464726573733a20696e73756666696369656e742062616c616e636520666f60008201527f722063616c6c0000000000000000000000000000000000000000000000000000602082015250565b7f476f7665726e6f723a20766f7465206e6f742063757272656e746c792061637460008201527f6976650000000000000000000000000000000000000000000000000000000000602082015250565b7f476f7665726e6f723a20656d7074792070726f706f73616c0000000000000000600082015250565b7f45434453413a20696e76616c6964207369676e6174757265202776272076616c60008201527f7565000000000000000000000000000000000000000000000000000000000000602082015250565b7f53616665436173743a2076616c756520646f65736e27742066697420696e203660008201527f3420626974730000000000000000000000000000000000000000000000000000602082015250565b7f476f7665726e6f723a2070726f706f73616c206e6f742073756363657373667560008201527f6c00000000000000000000000000000000000000000000000000000000000000602082015250565b7f476f7665726e6f723a20756e6b6e6f776e2070726f706f73616c206964000000600082015250565b7f476f7665726e6f72566f74696e6753696d706c653a20696e76616c696420766160008201527f6c756520666f7220656e756d20566f7465547970650000000000000000000000602082015250565b7f476f7665726e6f723a2070726f706f73616c20616c726561647920657869737460008201527f7300000000000000000000000000000000000000000000000000000000000000602082015250565b7f416464726573733a2063616c6c20746f206e6f6e2d636f6e7472616374000000600082015250565b7f476f7665726e6f723a2070726f706f73657220766f7465732062656c6f77207060008201527f726f706f73616c207468726573686f6c64000000000000000000000000000000602082015250565b600881106163d7576163d6615dd3565b5b50565b6163e381615b3b565b81146163ee57600080fd5b50565b6163fa81615b5f565b811461640557600080fd5b50565b61641181615b6b565b811461641c57600080fd5b50565b61642881615b75565b811461643357600080fd5b50565b61643f81615ba1565b811461644a57600080fd5b50565b61645681615bf0565b811461646157600080fd5b50565b61646d81615c0e565b811461647857600080fd5b5056fe416464726573733a206c6f772d6c6576656c2063616c6c20776974682076616c7565206661696c6564a2646970667358221220398c4d8790913af45ef9410f39ef6f5c2d948ca82939f976ffd3ecb617e0b2ce64736f6c63430008040033",
  "devdoc": {
    "errors": {
      "Empty()": [
        {
          "details": "An operation (e.g. {front}) couldn't be completed due to the queue being empty."
        }
      ]
    },
    "kind": "dev",
    "methods": {
      "COUNTING_MODE()": {
        "details": "See {IGovernor-COUNTING_MODE}."
      },
      "castVote(uint256,uint8)": {
        "details": "See {IGovernor-castVote}."
      },
      "castVoteBySig(uint256,uint8,uint8,bytes32,bytes32)": {
        "details": "See {IGovernor-castVoteBySig}."
      },
      "castVoteWithReason(uint256,uint8,string)": {
        "details": "See {IGovernor-castVoteWithReason}."
      },
      "castVoteWithReasonAndParams(uint256,uint8,string,bytes)": {
        "details": "See {IGovernor-castVoteWithReasonAndParams}."
      },
      "castVoteWithReasonAndParamsBySig(uint256,uint8,string,bytes,uint8,bytes32,bytes32)": {
        "details": "See {IGovernor-castVoteWithReasonAndParamsBySig}."
      },
      "execute(address[],uint256[],bytes[],bytes32)": {
        "details": "See {IGovernor-execute}."
      },
      "getVotes(address,uint256)": {
        "details": "See {IGovernor-getVotes}."
      },
      "getVotesWithParams(address,uint256,bytes)": {
        "details": "See {IGovernor-getVotesWithParams}."
      },
      "hasVoted(uint256,address)": {
        "details": "See {IGovernor-hasVoted}."
      },
      "hashProposal(address[],uint256[],bytes[],bytes32)": {
        "details": "See {IGovernor-hashProposal}. The proposal id is produced by hashing the RLC encoded `targets` array, the `values` array, the `calldatas` array and the descriptionHash (bytes32 which itself is the keccak256 hash of the description string). This proposal id can be produced from the proposal data which is part of the {ProposalCreated} event. It can even be computed in advance, before the proposal is submitted. Note that the chainId and the governor address are not part of the proposal id computation. Consequently, the same proposal (with same operation and same description) will have the same id if submitted on multiple governors across multiple networks. This also means that in order to execute the same operation twice (on the same governor) the proposer will have to change the description in order to avoid proposal id conflicts."
      },
      "name()": {
        "details": "See {IGovernor-name}."
      },
      "onERC1155BatchReceived(address,address,uint256[],uint256[],bytes)": {
        "details": "See {IERC1155Receiver-onERC1155BatchReceived}."
      },
      "onERC1155Received(address,address,uint256,uint256,bytes)": {
        "details": "See {IERC1155Receiver-onERC1155Received}."
      },
      "onERC721Received(address,address,uint256,bytes)": {
        "details": "See {IERC721Receiver-onERC721Received}."
      },
      "proposalDeadline(uint256)": {
        "details": "See {IGovernor-proposalDeadline}."
      },
      "proposalEta(uint256)": {
        "details": "Public accessor to check the eta of a queued proposal"
      },
      "proposalSnapshot(uint256)": {
        "details": "See {IGovernor-proposalSnapshot}."
      },
      "proposalVotes(uint256)": {
        "details": "Accessor to the internal vote counts."
      },
      "queue(address[],uint256[],bytes[],bytes32)": {
        "details": "Function to queue a proposal to the timelock."
      },
      "quorumDenominator()": {
        "details": "Returns the quorum denominator. Defaults to 100, but may be overridden."
      },
      "quorumNumerator()": {
        "details": "Returns the current quorum numerator. See {quorumDenominator}."
      },
      "relay(address,uint256,bytes)": {
        "details": "Relays a transaction or function call to an arbitrary target. In cases where the governance executor is some contract other than the governor itself, like when using a timelock, this function can be invoked in a governance proposal to recover tokens or Ether that was sent to the governor contract by mistake. Note that if the executor is simply the governor itself, use of `relay` is redundant."
      },
      "setProposalThreshold(uint256)": {
        "details": "Update the proposal threshold. This operation can only be performed through a governance proposal. Emits a {ProposalThresholdSet} event."
      },
      "setVotingDelay(uint256)": {
        "details": "Update the voting delay. This operation can only be performed through a governance proposal. Emits a {VotingDelaySet} event."
      },
      "setVotingPeriod(uint256)": {
        "details": "Update the voting period. This operation can only be performed through a governance proposal. Emits a {VotingPeriodSet} event."
      },
      "timelock()": {
        "details": "Public accessor to check the address of the timelock"
      },
      "updateQuorumNumerator(uint256)": {
        "details": "Changes the quorum numerator. Emits a {QuorumNumeratorUpdated} event. Requirements: - Must be called through a governance proposal. - New numerator must be smaller or equal to the denominator."
      },
      "updateTimelock(address)": {
        "details": "Public endpoint to update the underlying timelock instance. Restricted to the timelock itself, so updates must be proposed, scheduled, and executed through governance proposals. CAUTION: It is not recommended to change the timelock while there are other queued governance proposals."
      },
      "version()": {
        "details": "See {IGovernor-version}."
      }
    },
    "version": 1
  },
  "userdoc": {
    "kind": "user",
    "methods": {},
    "version": 1
  },
  "storageLayout": {
    "storage": [
      {
        "astId": 565,
        "contract": "contracts/governance/MyGovernor.sol:MyGovernor",
        "label": "_name",
        "offset": 0,
        "slot": "0",
        "type": "t_string_storage"
      },
      {
        "astId": 570,
        "contract": "contracts/governance/MyGovernor.sol:MyGovernor",
        "label": "_proposals",
        "offset": 0,
        "slot": "1",
        "type": "t_mapping(t_uint256,t_struct(ProposalCore)563_storage)"
      },
      {
        "astId": 573,
        "contract": "contracts/governance/MyGovernor.sol:MyGovernor",
        "label": "_governanceCall",
        "offset": 0,
        "slot": "2",
        "type": "t_struct(Bytes32Deque)10041_storage"
      },
      {
        "astId": 3238,
        "contract": "contracts/governance/MyGovernor.sol:MyGovernor",
        "label": "_votingDelay",
        "offset": 0,
        "slot": "4",
        "type": "t_uint256"
      },
      {
        "astId": 3240,
        "contract": "contracts/governance/MyGovernor.sol:MyGovernor",
        "label": "_votingPeriod",
        "offset": 0,
        "slot": "5",
        "type": "t_uint256"
      },
      {
        "astId": 3242,
        "contract": "contracts/governance/MyGovernor.sol:MyGovernor",
        "label": "_proposalThreshold",
        "offset": 0,
        "slot": "6",
        "type": "t_uint256"
      },
      {
        "astId": 3030,
        "contract": "contracts/governance/MyGovernor.sol:MyGovernor",
        "label": "_proposalVotes",
        "offset": 0,
        "slot": "7",
        "type": "t_mapping(t_uint256,t_struct(ProposalVote)3025_storage)"
      },
      {
        "astId": 3835,
        "contract": "contracts/governance/MyGovernor.sol:MyGovernor",
        "label": "_quorumNumerator",
        "offset": 0,
        "slot": "8",
        "type": "t_uint256"
      },
      {
        "astId": 3421,
        "contract": "contracts/governance/MyGovernor.sol:MyGovernor",
        "label": "_timelock",
        "offset": 0,
        "slot": "9",
        "type": "t_contract(TimelockController)3004"
      },
      {
        "astId": 3425,
        "contract": "contracts/governance/MyGovernor.sol:MyGovernor",
        "label": "_timelockIds",
        "offset": 0,
        "slot": "10",
        "type": "t_mapping(t_uint256,t_bytes32)"
      }
    ],
    "types": {
      "t_address": {
        "encoding": "inplace",
        "label": "address",
        "numberOfBytes": "20"
      },
      "t_bool": {
        "encoding": "inplace",
        "label": "bool",
        "numberOfBytes": "1"
      },
      "t_bytes32": {
        "encoding": "inplace",
        "label": "bytes32",
        "numberOfBytes": "32"
      },
      "t_contract(TimelockController)3004": {
        "encoding": "inplace",
        "label": "contract TimelockController",
        "numberOfBytes": "20"
      },
      "t_int128": {
        "encoding": "inplace",
        "label": "int128",
        "numberOfBytes": "16"
      },
      "t_mapping(t_address,t_bool)": {
        "encoding": "mapping",
        "key": "t_address",
        "label": "mapping(address => bool)",
        "numberOfBytes": "32",
        "value": "t_bool"
      },
      "t_mapping(t_int128,t_bytes32)": {
        "encoding": "mapping",
        "key": "t_int128",
        "label": "mapping(int128 => bytes32)",
        "numberOfBytes": "32",
        "value": "t_bytes32"
      },
      "t_mapping(t_uint256,t_bytes32)": {
        "encoding": "mapping",
        "key": "t_uint256",
        "label": "mapping(uint256 => bytes32)",
        "numberOfBytes": "32",
        "value": "t_bytes32"
      },
      "t_mapping(t_uint256,t_struct(ProposalCore)563_storage)": {
        "encoding": "mapping",
        "key": "t_uint256",
        "label": "mapping(uint256 => struct Governor.ProposalCore)",
        "numberOfBytes": "32",
        "value": "t_struct(ProposalCore)563_storage"
      },
      "t_mapping(t_uint256,t_struct(ProposalVote)3025_storage)": {
        "encoding": "mapping",
        "key": "t_uint256",
        "label": "mapping(uint256 => struct GovernorCountingSimple.ProposalVote)",
        "numberOfBytes": "32",
        "value": "t_struct(ProposalVote)3025_storage"
      },
      "t_string_storage": {
        "encoding": "bytes",
        "label": "string",
        "numberOfBytes": "32"
      },
      "t_struct(BlockNumber)6655_storage": {
        "encoding": "inplace",
        "label": "struct Timers.BlockNumber",
        "members": [
          {
            "astId": 6654,
            "contract": "contracts/governance/MyGovernor.sol:MyGovernor",
            "label": "_deadline",
            "offset": 0,
            "slot": "0",
            "type": "t_uint64"
          }
        ],
        "numberOfBytes": "32"
      },
      "t_struct(Bytes32Deque)10041_storage": {
        "encoding": "inplace",
        "label": "struct DoubleEndedQueue.Bytes32Deque",
        "members": [
          {
            "astId": 10034,
            "contract": "contracts/governance/MyGovernor.sol:MyGovernor",
            "label": "_begin",
            "offset": 0,
            "slot": "0",
            "type": "t_int128"
          },
          {
            "astId": 10036,
            "contract": "contracts/governance/MyGovernor.sol:MyGovernor",
            "label": "_end",
            "offset": 16,
            "slot": "0",
            "type": "t_int128"
          },
          {
            "astId": 10040,
            "contract": "contracts/governance/MyGovernor.sol:MyGovernor",
            "label": "_data",
            "offset": 0,
            "slot": "1",
            "type": "t_mapping(t_int128,t_bytes32)"
          }
        ],
        "numberOfBytes": "64"
      },
      "t_struct(ProposalCore)563_storage": {
        "encoding": "inplace",
        "label": "struct Governor.ProposalCore",
        "members": [
          {
            "astId": 555,
            "contract": "contracts/governance/MyGovernor.sol:MyGovernor",
            "label": "voteStart",
            "offset": 0,
            "slot": "0",
            "type": "t_struct(BlockNumber)6655_storage"
          },
          {
            "astId": 558,
            "contract": "contracts/governance/MyGovernor.sol:MyGovernor",
            "label": "voteEnd",
            "offset": 0,
            "slot": "1",
            "type": "t_struct(BlockNumber)6655_storage"
          },
          {
            "astId": 560,
            "contract": "contracts/governance/MyGovernor.sol:MyGovernor",
            "label": "executed",
            "offset": 0,
            "slot": "2",
            "type": "t_bool"
          },
          {
            "astId": 562,
            "contract": "contracts/governance/MyGovernor.sol:MyGovernor",
            "label": "canceled",
            "offset": 1,
            "slot": "2",
            "type": "t_bool"
          }
        ],
        "numberOfBytes": "96"
      },
      "t_struct(ProposalVote)3025_storage": {
        "encoding": "inplace",
        "label": "struct GovernorCountingSimple.ProposalVote",
        "members": [
          {
            "astId": 3016,
            "contract": "contracts/governance/MyGovernor.sol:MyGovernor",
            "label": "againstVotes",
            "offset": 0,
            "slot": "0",
            "type": "t_uint256"
          },
          {
            "astId": 3018,
            "contract": "contracts/governance/MyGovernor.sol:MyGovernor",
            "label": "forVotes",
            "offset": 0,
            "slot": "1",
            "type": "t_uint256"
          },
          {
            "astId": 3020,
            "contract": "contracts/governance/MyGovernor.sol:MyGovernor",
            "label": "abstainVotes",
            "offset": 0,
            "slot": "2",
            "type": "t_uint256"
          },
          {
            "astId": 3024,
            "contract": "contracts/governance/MyGovernor.sol:MyGovernor",
            "label": "hasVoted",
            "offset": 0,
            "slot": "3",
            "type": "t_mapping(t_address,t_bool)"
          }
        ],
        "numberOfBytes": "128"
      },
      "t_uint256": {
        "encoding": "inplace",
        "label": "uint256",
        "numberOfBytes": "32"
      },
      "t_uint64": {
        "encoding": "inplace",
        "label": "uint64",
        "numberOfBytes": "8"
      }
    }
  }
}