{
  "address": "0xCf7Ed3AccA5a467e9e704C703E8D87F634fB0Fc9",
  "abi": [
    {
      "inputs": [
        {
          "internalType": "uint256",
          "name": "_tokenPerBlock",
          "type": "uint256"
        },
        {
          "internalType": "contract SCToken",
          "name": "_stakingToken",
          "type": "address"
        },
        {
          "internalType": "contract RCToken",
          "name": "_rewardToken",
          "type": "address"
        },
        {
          "internalType": "address",
          "name": "_devaddr",
          "type": "address"
        }
      ],
      "stateMutability": "nonpayable",
      "type": "constructor"
    },
    {
      "anonymous": false,
      "inputs": [
        {
          "indexed": true,
          "internalType": "address",
          "name": "user",
          "type": "address"
        },
        {
          "indexed": false,
          "internalType": "uint256",
          "name": "amount",
          "type": "uint256"
        }
      ],
      "name": "Deposit",
      "type": "event"
    },
    {
      "anonymous": false,
      "inputs": [
        {
          "indexed": true,
          "internalType": "address",
          "name": "previousOwner",
          "type": "address"
        },
        {
          "indexed": true,
          "internalType": "address",
          "name": "newOwner",
          "type": "address"
        }
      ],
      "name": "OwnershipTransferred",
      "type": "event"
    },
    {
      "anonymous": false,
      "inputs": [
        {
          "indexed": true,
          "internalType": "address",
          "name": "user",
          "type": "address"
        },
        {
          "indexed": false,
          "internalType": "uint256",
          "name": "amount",
          "type": "uint256"
        }
      ],
      "name": "Withdraw",
      "type": "event"
    },
    {
      "inputs": [
        {
          "internalType": "uint256",
          "name": "_amount",
          "type": "uint256"
        }
      ],
      "name": "deposit",
      "outputs": [],
      "stateMutability": "nonpayable",
      "type": "function"
    },
    {
      "inputs": [],
      "name": "devaddr",
      "outputs": [
        {
          "internalType": "address",
          "name": "",
          "type": "address"
        }
      ],
      "stateMutability": "view",
      "type": "function"
    },
    {
      "inputs": [
        {
          "internalType": "uint256",
          "name": "_amount",
          "type": "uint256"
        }
      ],
      "name": "enterStaking",
      "outputs": [],
      "stateMutability": "nonpayable",
      "type": "function"
    },
    {
      "inputs": [
        {
          "internalType": "uint256",
          "name": "_from",
          "type": "uint256"
        },
        {
          "internalType": "uint256",
          "name": "_to",
          "type": "uint256"
        }
      ],
      "name": "getMultiplier",
      "outputs": [
        {
          "internalType": "uint256",
          "name": "",
          "type": "uint256"
        }
      ],
      "stateMutability": "pure",
      "type": "function"
    },
    {
      "inputs": [
        {
          "internalType": "uint256",
          "name": "_amount",
          "type": "uint256"
        }
      ],
      "name": "leaveStaking",
      "outputs": [],
      "stateMutability": "nonpayable",
      "type": "function"
    },
    {
      "inputs": [],
      "name": "owner",
      "outputs": [
        {
          "internalType": "address",
          "name": "",
          "type": "address"
        }
      ],
      "stateMutability": "view",
      "type": "function"
    },
    {
      "inputs": [
        {
          "internalType": "address",
          "name": "_user",
          "type": "address"
        }
      ],
      "name": "pendingToken",
      "outputs": [
        {
          "internalType": "uint256",
          "name": "",
          "type": "uint256"
        }
      ],
      "stateMutability": "view",
      "type": "function"
    },
    {
      "inputs": [],
      "name": "renounceOwnership",
      "outputs": [],
      "stateMutability": "nonpayable",
      "type": "function"
    },
    {
      "inputs": [],
      "name": "rewardToken",
      "outputs": [
        {
          "internalType": "contract RCToken",
          "name": "",
          "type": "address"
        }
      ],
      "stateMutability": "view",
      "type": "function"
    },
    {
      "inputs": [],
      "name": "tokensPerBlock",
      "outputs": [
        {
          "internalType": "uint256",
          "name": "",
          "type": "uint256"
        }
      ],
      "stateMutability": "view",
      "type": "function"
    },
    {
      "inputs": [],
      "name": "totalAllocPoint",
      "outputs": [
        {
          "internalType": "uint256",
          "name": "",
          "type": "uint256"
        }
      ],
      "stateMutability": "view",
      "type": "function"
    },
    {
      "inputs": [
        {
          "internalType": "address",
          "name": "newOwner",
          "type": "address"
        }
      ],
      "name": "transferOwnership",
      "outputs": [],
      "stateMutability": "nonpayable",
      "type": "function"
    },
    {
      "inputs": [],
      "name": "updatePool",
      "outputs": [],
      "stateMutability": "nonpayable",
      "type": "function"
    },
    {
      "inputs": [
        {
          "internalType": "uint256",
          "name": "_tokensPerBlock",
          "type": "uint256"
        }
      ],
      "name": "updateRewardPerBlock",
      "outputs": [],
      "stateMutability": "nonpayable",
      "type": "function"
    },
    {
      "inputs": [
        {
          "internalType": "address",
          "name": "",
          "type": "address"
        }
      ],
      "name": "userInfo",
      "outputs": [
        {
          "internalType": "uint256",
          "name": "amount",
          "type": "uint256"
        },
        {
          "internalType": "uint256",
          "name": "accumulatedRewards",
          "type": "uint256"
        }
      ],
      "stateMutability": "view",
      "type": "function"
    },
    {
      "inputs": [
        {
          "internalType": "uint256",
          "name": "_amount",
          "type": "uint256"
        }
      ],
      "name": "withdraw",
      "outputs": [],
      "stateMutability": "nonpayable",
      "type": "function"
    }
  ],
  "transactionHash": "0xaa70e66d826e541aea720a06d306cfd98aa9206dad124394af28e9f5e65ec90e",
  "args": [
    1500,
    "0x5FbDB2315678afecb367f032d93F642f64180aa3",
    "0x9fE46736679d2D9a65F0992F2272dE9f3c7fa6e0",
    "0xf39Fd6e51aad88F6F4ce6aB8827279cffFb92266"
  ],
  "numDeployments": 1,
  "solcInputHash": "1af56064a8e9a5e8cae4074834d50ffc",
  "bytecode": "0x60806040523480156200001157600080fd5b50604051620027ee380380620027ee8339818101604052810190620000379190620002e7565b620000576200004b620001bf60201b60201c565b620001c760201b60201c565b612710600581905550600260405180608001604052808573ffffffffffffffffffffffffffffffffffffffff16815260200161271081526020014381526020016000815250908060018154018082558091505060019003906000526020600020906004020160009091909190915060008201518160000160006101000a81548173ffffffffffffffffffffffffffffffffffffffff021916908373ffffffffffffffffffffffffffffffffffffffff160217905550602082015181600101556040820151816002015560608201518160030155505081600160006101000a81548173ffffffffffffffffffffffffffffffffffffffff021916908373ffffffffffffffffffffffffffffffffffffffff16021790555080600660006101000a81548173ffffffffffffffffffffffffffffffffffffffff021916908373ffffffffffffffffffffffffffffffffffffffff160217905550836004819055505050505062000421565b600033905090565b60008060009054906101000a900473ffffffffffffffffffffffffffffffffffffffff169050816000806101000a81548173ffffffffffffffffffffffffffffffffffffffff021916908373ffffffffffffffffffffffffffffffffffffffff1602179055508173ffffffffffffffffffffffffffffffffffffffff168173ffffffffffffffffffffffffffffffffffffffff167f8be0079c531659141344cd1fd0a4f28419497f9722a3daafe3b4186f6b6457e060405160405180910390a35050565b6000815190506200029c81620003b9565b92915050565b600081519050620002b381620003d3565b92915050565b600081519050620002ca81620003ed565b92915050565b600081519050620002e18162000407565b92915050565b60008060008060808587031215620002fe57600080fd5b60006200030e87828801620002d0565b94505060206200032187828801620002b9565b93505060406200033487828801620002a2565b925050606062000347878288016200028b565b91505092959194509250565b600062000360826200038f565b9050919050565b6000620003748262000353565b9050919050565b6000620003888262000353565b9050919050565b600073ffffffffffffffffffffffffffffffffffffffff82169050919050565b6000819050919050565b620003c48162000353565b8114620003d057600080fd5b50565b620003de8162000367565b8114620003ea57600080fd5b50565b620003f8816200037b565b81146200040457600080fd5b50565b6200041281620003af565b81146200041e57600080fd5b50565b6123bd80620004316000396000f3fe608060405234801561001057600080fd5b50600436106101005760003560e01c80638da5cb5b11610097578063d49e77cd11610066578063d49e77cd14610286578063e3161ddd146102a4578063f2fde38b146102ae578063f7c618c1146102ca57610100565b80638da5cb5b146101ec5780638dbb1e3a1461020a578063b6b55f251461023a578063cde10ca01461025657610100565b80631a1cb01f116100d35780631a1cb01f1461018c5780632e1a7d4d146101aa57806341441d3b146101c6578063715018a6146101e257610100565b806301f8a976146101055780631058d2811461012157806317caf6f11461013d5780631959a0021461015b575b600080fd5b61011f600480360381019061011a9190611b29565b6102e8565b005b61013b60048036038101906101369190611b29565b6102fa565b005b6101456105ce565b6040516101529190611ef2565b60405180910390f35b61017560048036038101906101709190611ad7565b6105d4565b604051610183929190611f0d565b60405180910390f35b6101946105f8565b6040516101a19190611ef2565b60405180910390f35b6101c460048036038101906101bf9190611b29565b6105fe565b005b6101e060048036038101906101db9190611b29565b610843565b005b6101ea610ae0565b005b6101f4610af4565b6040516102019190611d5a565b60405180910390f35b610224600480360381019061021f9190611b7b565b610b1d565b6040516102319190611ef2565b60405180910390f35b610254600480360381019061024f9190611b29565b610b3a565b005b610270600480360381019061026b9190611ad7565b610d4b565b60405161027d9190611ef2565b60405180910390f35b61028e610f96565b60405161029b9190611d5a565b60405180910390f35b6102ac610fbc565b005b6102c860048036038101906102c39190611ad7565b611244565b005b6102d26112c8565b6040516102df9190611dd5565b60405180910390f35b6102f06112ee565b8060048190555050565b60006002600081548110610337577f4e487b7100000000000000000000000000000000000000000000000000000000600052603260045260246000fd5b906000526020600020906004020190506000600360003373ffffffffffffffffffffffffffffffffffffffff1673ffffffffffffffffffffffffffffffffffffffff168152602001908152602001600020905082816000015410156103d1576040517f08c379a00000000000000000000000000000000000000000000000000000000081526004016103c890611eb2565b60405180910390fd5b6103d9610fbc565b6000610423826001015461041564e8d4a510006104078760030154876000015461136c90919063ffffffff16565b61138290919063ffffffff16565b61139890919063ffffffff16565b905060008111156104395761043833826113ae565b5b60008411156104b15761045984836000015461139890919063ffffffff16565b82600001819055506104b033858560000160009054906101000a900473ffffffffffffffffffffffffffffffffffffffff1673ffffffffffffffffffffffffffffffffffffffff166116159092919063ffffffff16565b5b6104e364e8d4a510006104d58560030154856000015461136c90919063ffffffff16565b61138290919063ffffffff16565b8260010181905550600160009054906101000a900473ffffffffffffffffffffffffffffffffffffffff1673ffffffffffffffffffffffffffffffffffffffff16639dc29fac33866040518363ffffffff1660e01b8152600401610548929190611dac565b600060405180830381600087803b15801561056257600080fd5b505af1158015610576573d6000803e3d6000fd5b505050503373ffffffffffffffffffffffffffffffffffffffff167f884edad9ce6fa2440d8a54cc123490eb96d2768479d49ff9c7366125a9424364856040516105c09190611ef2565b60405180910390a250505050565b60055481565b60036020528060005260406000206000915090508060000154908060010154905082565b60045481565b6000600260008154811061063b577f4e487b7100000000000000000000000000000000000000000000000000000000600052603260045260246000fd5b906000526020600020906004020190506000600360003373ffffffffffffffffffffffffffffffffffffffff1673ffffffffffffffffffffffffffffffffffffffff168152602001908152602001600020905082816000015410156106d5576040517f08c379a00000000000000000000000000000000000000000000000000000000081526004016106cc90611eb2565b60405180910390fd5b6106dd610fbc565b6000610727826001015461071964e8d4a5100061070b8760030154876000015461136c90919063ffffffff16565b61138290919063ffffffff16565b61139890919063ffffffff16565b9050600081111561073d5761073c33826113ae565b5b60008411156107b55761075d84836000015461139890919063ffffffff16565b82600001819055506107b433858560000160009054906101000a900473ffffffffffffffffffffffffffffffffffffffff1673ffffffffffffffffffffffffffffffffffffffff166116159092919063ffffffff16565b5b6107e764e8d4a510006107d98560030154856000015461136c90919063ffffffff16565b61138290919063ffffffff16565b82600101819055503373ffffffffffffffffffffffffffffffffffffffff167f884edad9ce6fa2440d8a54cc123490eb96d2768479d49ff9c7366125a9424364856040516108359190611ef2565b60405180910390a250505050565b60006002600081548110610880577f4e487b7100000000000000000000000000000000000000000000000000000000600052603260045260246000fd5b906000526020600020906004020190506000600360003373ffffffffffffffffffffffffffffffffffffffff1673ffffffffffffffffffffffffffffffffffffffff16815260200190815260200160002090506108db610fbc565b60008160000154111561094a576000610932826001015461092464e8d4a510006109168760030154876000015461136c90919063ffffffff16565b61138290919063ffffffff16565b61139890919063ffffffff16565b905060008111156109485761094733826113ae565b5b505b60008311156109c4576109a43330858560000160009054906101000a900473ffffffffffffffffffffffffffffffffffffffff1673ffffffffffffffffffffffffffffffffffffffff1661169b909392919063ffffffff16565b6109bb83826000015461172490919063ffffffff16565b81600001819055505b6109f664e8d4a510006109e88460030154846000015461136c90919063ffffffff16565b61138290919063ffffffff16565b8160010181905550600160009054906101000a900473ffffffffffffffffffffffffffffffffffffffff1673ffffffffffffffffffffffffffffffffffffffff166340c10f1933856040518363ffffffff1660e01b8152600401610a5b929190611dac565b600060405180830381600087803b158015610a7557600080fd5b505af1158015610a89573d6000803e3d6000fd5b505050503373ffffffffffffffffffffffffffffffffffffffff167fe1fffcc4923d04b559f4d29a8bfc6cda04eb5b0d3c460751c2402c5c5cc9109c84604051610ad39190611ef2565b60405180910390a2505050565b610ae86112ee565b610af2600061173a565b565b60008060009054906101000a900473ffffffffffffffffffffffffffffffffffffffff16905090565b6000610b32838361139890919063ffffffff16565b905092915050565b60006002600081548110610b77577f4e487b7100000000000000000000000000000000000000000000000000000000600052603260045260246000fd5b906000526020600020906004020190506000600360003373ffffffffffffffffffffffffffffffffffffffff1673ffffffffffffffffffffffffffffffffffffffff1681526020019081526020016000209050610bd2610fbc565b600081600001541115610c44576000610c2c8260010154610c1e670de0b6b3a7640000610c108760030154876000015461136c90919063ffffffff16565b61138290919063ffffffff16565b61139890919063ffffffff16565b90506000811115610c4257610c4133826113ae565b5b505b6000831115610cbe57610c9e3330858560000160009054906101000a900473ffffffffffffffffffffffffffffffffffffffff1673ffffffffffffffffffffffffffffffffffffffff1661169b909392919063ffffffff16565b610cb583826000015461172490919063ffffffff16565b81600001819055505b610cf064e8d4a51000610ce28460030154846000015461136c90919063ffffffff16565b61138290919063ffffffff16565b81600101819055503373ffffffffffffffffffffffffffffffffffffffff167fe1fffcc4923d04b559f4d29a8bfc6cda04eb5b0d3c460751c2402c5c5cc9109c84604051610d3e9190611ef2565b60405180910390a2505050565b6000806002600081548110610d89577f4e487b7100000000000000000000000000000000000000000000000000000000600052603260045260246000fd5b906000526020600020906004020190506000600360008573ffffffffffffffffffffffffffffffffffffffff1673ffffffffffffffffffffffffffffffffffffffff168152602001908152602001600020905060008260030154905060008360000160009054906101000a900473ffffffffffffffffffffffffffffffffffffffff1673ffffffffffffffffffffffffffffffffffffffff166370a08231306040518263ffffffff1660e01b8152600401610e449190611d5a565b60206040518083038186803b158015610e5c57600080fd5b505afa158015610e70573d6000803e3d6000fd5b505050506040513d601f19601f82011682018060405250810190610e949190611b52565b9050836002015443118015610eaa575060008114155b15610f47576000846002015443610ec19190612049565b90506000610f04600554610ef68860010154610ee86004548761136c90919063ffffffff16565b61136c90919063ffffffff16565b61138290919063ffffffff16565b9050610f42610f3384610f2564e8d4a510008561136c90919063ffffffff16565b61138290919063ffffffff16565b8561172490919063ffffffff16565b935050505b610f8b8360010154610f7d64e8d4a51000610f6f86886000015461136c90919063ffffffff16565b61138290919063ffffffff16565b61139890919063ffffffff16565b945050505050919050565b600660009054906101000a900473ffffffffffffffffffffffffffffffffffffffff1681565b60006002600081548110610ff9577f4e487b7100000000000000000000000000000000000000000000000000000000600052603260045260246000fd5b906000526020600020906004020190508060020154431161101a5750611242565b60008160000160009054906101000a900473ffffffffffffffffffffffffffffffffffffffff1673ffffffffffffffffffffffffffffffffffffffff166370a08231306040518263ffffffff1660e01b81526004016110799190611d5a565b60206040518083038186803b15801561109157600080fd5b505afa1580156110a5573d6000803e3d6000fd5b505050506040513d601f19601f820116820180604052508101906110c99190611b52565b905060008114156110e4574382600201819055505050611242565b60006110f4836002015443610b1d565b90506000611137600554611129866001015461111b6004548761136c90919063ffffffff16565b61136c90919063ffffffff16565b61138290919063ffffffff16565b9050600160009054906101000a900473ffffffffffffffffffffffffffffffffffffffff1673ffffffffffffffffffffffffffffffffffffffff166340c10f19600660009054906101000a900473ffffffffffffffffffffffffffffffffffffffff16836040518363ffffffff1660e01b81526004016111b8929190611dac565b600060405180830381600087803b1580156111d257600080fd5b505af11580156111e6573d6000803e3d6000fd5b5050505061122c6112198461120b64e8d4a5100060045461136c90919063ffffffff16565b61138290919063ffffffff16565b856003015461172490919063ffffffff16565b8460030181905550438460020181905550505050505b565b61124c6112ee565b600073ffffffffffffffffffffffffffffffffffffffff168173ffffffffffffffffffffffffffffffffffffffff1614156112bc576040517f08c379a00000000000000000000000000000000000000000000000000000000081526004016112b390611e12565b60405180910390fd5b6112c58161173a565b50565b600160009054906101000a900473ffffffffffffffffffffffffffffffffffffffff1681565b6112f66117fe565b73ffffffffffffffffffffffffffffffffffffffff16611314610af4565b73ffffffffffffffffffffffffffffffffffffffff161461136a576040517f08c379a000000000000000000000000000000000000000000000000000000000815260040161136190611e72565b60405180910390fd5b565b6000818361137a9190611fef565b905092915050565b600081836113909190611fbe565b905092915050565b600081836113a69190612049565b905092915050565b6000600160009054906101000a900473ffffffffffffffffffffffffffffffffffffffff1673ffffffffffffffffffffffffffffffffffffffff166370a08231306040518263ffffffff1660e01b815260040161140b9190611d5a565b60206040518083038186803b15801561142357600080fd5b505afa158015611437573d6000803e3d6000fd5b505050506040513d601f19601f8201168201806040525081019061145b9190611b52565b905060008183111561151d57600160009054906101000a900473ffffffffffffffffffffffffffffffffffffffff1673ffffffffffffffffffffffffffffffffffffffff1663a9059cbb85846040518363ffffffff1660e01b81526004016114c4929190611dac565b602060405180830381600087803b1580156114de57600080fd5b505af11580156114f2573d6000803e3d6000fd5b505050506040513d601f19601f820116820180604052508101906115169190611b00565b90506115cf565b600160009054906101000a900473ffffffffffffffffffffffffffffffffffffffff1673ffffffffffffffffffffffffffffffffffffffff1663a9059cbb85856040518363ffffffff1660e01b815260040161157a929190611dac565b602060405180830381600087803b15801561159457600080fd5b505af11580156115a8573d6000803e3d6000fd5b505050506040513d601f19601f820116820180604052508101906115cc9190611b00565b90505b8061160f576040517f08c379a000000000000000000000000000000000000000000000000000000000815260040161160690611e52565b60405180910390fd5b50505050565b6116968363a9059cbb60e01b8484604051602401611634929190611dac565b604051602081830303815290604052907bffffffffffffffffffffffffffffffffffffffffffffffffffffffff19166020820180517bffffffffffffffffffffffffffffffffffffffffffffffffffffffff8381831617835250505050611806565b505050565b61171e846323b872dd60e01b8585856040516024016116bc93929190611d75565b604051602081830303815290604052907bffffffffffffffffffffffffffffffffffffffffffffffffffffffff19166020820180517bffffffffffffffffffffffffffffffffffffffffffffffffffffffff8381831617835250505050611806565b50505050565b600081836117329190611f68565b905092915050565b60008060009054906101000a900473ffffffffffffffffffffffffffffffffffffffff169050816000806101000a81548173ffffffffffffffffffffffffffffffffffffffff021916908373ffffffffffffffffffffffffffffffffffffffff1602179055508173ffffffffffffffffffffffffffffffffffffffff168173ffffffffffffffffffffffffffffffffffffffff167f8be0079c531659141344cd1fd0a4f28419497f9722a3daafe3b4186f6b6457e060405160405180910390a35050565b600033905090565b6000611868826040518060400160405280602081526020017f5361666545524332303a206c6f772d6c6576656c2063616c6c206661696c65648152508573ffffffffffffffffffffffffffffffffffffffff166118cd9092919063ffffffff16565b90506000815111156118c857808060200190518101906118889190611b00565b6118c7576040517f08c379a00000000000000000000000000000000000000000000000000000000081526004016118be90611ed2565b60405180910390fd5b5b505050565b60606118dc84846000856118e5565b90509392505050565b60608247101561192a576040517f08c379a000000000000000000000000000000000000000000000000000000000815260040161192190611e32565b60405180910390fd5b611933856119f9565b611972576040517f08c379a000000000000000000000000000000000000000000000000000000000815260040161196990611e92565b60405180910390fd5b6000808673ffffffffffffffffffffffffffffffffffffffff16858760405161199b9190611d43565b60006040518083038185875af1925050503d80600081146119d8576040519150601f19603f3d011682016040523d82523d6000602084013e6119dd565b606091505b50915091506119ed828286611a1c565b92505050949350505050565b6000808273ffffffffffffffffffffffffffffffffffffffff163b119050919050565b60608315611a2c57829050611a7c565b600083511115611a3f5782518084602001fd5b816040517f08c379a0000000000000000000000000000000000000000000000000000000008152600401611a739190611df0565b60405180910390fd5b9392505050565b600081359050611a9281612342565b92915050565b600081519050611aa781612359565b92915050565b600081359050611abc81612370565b92915050565b600081519050611ad181612370565b92915050565b600060208284031215611ae957600080fd5b6000611af784828501611a83565b91505092915050565b600060208284031215611b1257600080fd5b6000611b2084828501611a98565b91505092915050565b600060208284031215611b3b57600080fd5b6000611b4984828501611aad565b91505092915050565b600060208284031215611b6457600080fd5b6000611b7284828501611ac2565b91505092915050565b60008060408385031215611b8e57600080fd5b6000611b9c85828601611aad565b9250506020611bad85828601611aad565b9150509250929050565b611bc08161207d565b82525050565b6000611bd182611f36565b611bdb8185611f4c565b9350611beb8185602086016120e9565b80840191505092915050565b611c00816120c5565b82525050565b6000611c1182611f41565b611c1b8185611f57565b9350611c2b8185602086016120e9565b611c348161217a565b840191505092915050565b6000611c4c602683611f57565b9150611c578261218b565b604082019050919050565b6000611c6f602683611f57565b9150611c7a826121da565b604082019050919050565b6000611c92602283611f57565b9150611c9d82612229565b604082019050919050565b6000611cb5602083611f57565b9150611cc082612278565b602082019050919050565b6000611cd8601d83611f57565b9150611ce3826122a1565b602082019050919050565b6000611cfb601283611f57565b9150611d06826122ca565b602082019050919050565b6000611d1e602a83611f57565b9150611d29826122f3565b604082019050919050565b611d3d816120bb565b82525050565b6000611d4f8284611bc6565b915081905092915050565b6000602082019050611d6f6000830184611bb7565b92915050565b6000606082019050611d8a6000830186611bb7565b611d976020830185611bb7565b611da46040830184611d34565b949350505050565b6000604082019050611dc16000830185611bb7565b611dce6020830184611d34565b9392505050565b6000602082019050611dea6000830184611bf7565b92915050565b60006020820190508181036000830152611e0a8184611c06565b905092915050565b60006020820190508181036000830152611e2b81611c3f565b9050919050565b60006020820190508181036000830152611e4b81611c62565b9050919050565b60006020820190508181036000830152611e6b81611c85565b9050919050565b60006020820190508181036000830152611e8b81611ca8565b9050919050565b60006020820190508181036000830152611eab81611ccb565b9050919050565b60006020820190508181036000830152611ecb81611cee565b9050919050565b60006020820190508181036000830152611eeb81611d11565b9050919050565b6000602082019050611f076000830184611d34565b92915050565b6000604082019050611f226000830185611d34565b611f2f6020830184611d34565b9392505050565b600081519050919050565b600081519050919050565b600081905092915050565b600082825260208201905092915050565b6000611f73826120bb565b9150611f7e836120bb565b9250827fffffffffffffffffffffffffffffffffffffffffffffffffffffffffffffffff03821115611fb357611fb261211c565b5b828201905092915050565b6000611fc9826120bb565b9150611fd4836120bb565b925082611fe457611fe361214b565b5b828204905092915050565b6000611ffa826120bb565b9150612005836120bb565b9250817fffffffffffffffffffffffffffffffffffffffffffffffffffffffffffffffff048311821515161561203e5761203d61211c565b5b828202905092915050565b6000612054826120bb565b915061205f836120bb565b9250828210156120725761207161211c565b5b828203905092915050565b60006120888261209b565b9050919050565b60008115159050919050565b600073ffffffffffffffffffffffffffffffffffffffff82169050919050565b6000819050919050565b60006120d0826120d7565b9050919050565b60006120e28261209b565b9050919050565b60005b838110156121075780820151818401526020810190506120ec565b83811115612116576000848401525b50505050565b7f4e487b7100000000000000000000000000000000000000000000000000000000600052601160045260246000fd5b7f4e487b7100000000000000000000000000000000000000000000000000000000600052601260045260246000fd5b6000601f19601f8301169050919050565b7f4f776e61626c653a206e6577206f776e657220697320746865207a65726f206160008201527f6464726573730000000000000000000000000000000000000000000000000000602082015250565b7f416464726573733a20696e73756666696369656e742062616c616e636520666f60008201527f722063616c6c0000000000000000000000000000000000000000000000000000602082015250565b7f73616665546f6b656e5472616e736665723a207472616e73666572206661696c60008201527f6564000000000000000000000000000000000000000000000000000000000000602082015250565b7f4f776e61626c653a2063616c6c6572206973206e6f7420746865206f776e6572600082015250565b7f416464726573733a2063616c6c20746f206e6f6e2d636f6e7472616374000000600082015250565b7f77697468647261773a206e6f7420676f6f640000000000000000000000000000600082015250565b7f5361666545524332303a204552433230206f7065726174696f6e20646964206e60008201527f6f74207375636365656400000000000000000000000000000000000000000000602082015250565b61234b8161207d565b811461235657600080fd5b50565b6123628161208f565b811461236d57600080fd5b50565b612379816120bb565b811461238457600080fd5b5056fea26469706673582212200e9a9a73d2848da44103ab4c405fabd059097533dca314adcde4fd8b1a18e5c464736f6c63430008040033",
  "devdoc": {
    "kind": "dev",
    "methods": {
      "owner()": {
        "details": "Returns the address of the current owner."
      },
      "renounceOwnership()": {
        "details": "Leaves the contract without owner. It will not be possible to call `onlyOwner` functions anymore. Can only be called by the current owner. NOTE: Renouncing ownership will leave the contract without an owner, thereby removing any functionality that is only available to the owner."
      },
      "transferOwnership(address)": {
        "details": "Transfers ownership of the contract to a new account (`newOwner`). Can only be called by the current owner."
      }
    },
    "version": 1
  },
  "userdoc": {
    "kind": "user",
    "methods": {},
    "version": 1
  },
  "storageLayout": {
    "storage": [
      {
        "astId": 7,
        "contract": "contracts/staking/StakingController.sol:StakingController",
        "label": "_owner",
        "offset": 0,
        "slot": "0",
        "type": "t_address"
      },
      {
        "astId": 6047,
        "contract": "contracts/staking/StakingController.sol:StakingController",
        "label": "rewardToken",
        "offset": 0,
        "slot": "1",
        "type": "t_contract(RCToken)5905"
      },
      {
        "astId": 6051,
        "contract": "contracts/staking/StakingController.sol:StakingController",
        "label": "pools",
        "offset": 0,
        "slot": "2",
        "type": "t_array(t_struct(PoolInfo)6044_storage)dyn_storage"
      },
      {
        "astId": 6056,
        "contract": "contracts/staking/StakingController.sol:StakingController",
        "label": "userInfo",
        "offset": 0,
        "slot": "3",
        "type": "t_mapping(t_address,t_struct(UserInfo)6034_storage)"
      },
      {
        "astId": 6058,
        "contract": "contracts/staking/StakingController.sol:StakingController",
        "label": "tokensPerBlock",
        "offset": 0,
        "slot": "4",
        "type": "t_uint256"
      },
      {
        "astId": 6060,
        "contract": "contracts/staking/StakingController.sol:StakingController",
        "label": "totalAllocPoint",
        "offset": 0,
        "slot": "5",
        "type": "t_uint256"
      },
      {
        "astId": 6062,
        "contract": "contracts/staking/StakingController.sol:StakingController",
        "label": "devaddr",
        "offset": 0,
        "slot": "6",
        "type": "t_address"
      }
    ],
    "types": {
      "t_address": {
        "encoding": "inplace",
        "label": "address",
        "numberOfBytes": "20"
      },
      "t_array(t_struct(PoolInfo)6044_storage)dyn_storage": {
        "base": "t_struct(PoolInfo)6044_storage",
        "encoding": "dynamic_array",
        "label": "struct StakingController.PoolInfo[]",
        "numberOfBytes": "32"
      },
      "t_contract(IERC20)854": {
        "encoding": "inplace",
        "label": "contract IERC20",
        "numberOfBytes": "20"
      },
      "t_contract(RCToken)5905": {
        "encoding": "inplace",
        "label": "contract RCToken",
        "numberOfBytes": "20"
      },
      "t_mapping(t_address,t_struct(UserInfo)6034_storage)": {
        "encoding": "mapping",
        "key": "t_address",
        "label": "mapping(address => struct StakingController.UserInfo)",
        "numberOfBytes": "32",
        "value": "t_struct(UserInfo)6034_storage"
      },
      "t_struct(PoolInfo)6044_storage": {
        "encoding": "inplace",
        "label": "struct StakingController.PoolInfo",
        "members": [
          {
            "astId": 6037,
            "contract": "contracts/staking/StakingController.sol:StakingController",
            "label": "stakeToken",
            "offset": 0,
            "slot": "0",
            "type": "t_contract(IERC20)854"
          },
          {
            "astId": 6039,
            "contract": "contracts/staking/StakingController.sol:StakingController",
            "label": "allocPoint",
            "offset": 0,
            "slot": "1",
            "type": "t_uint256"
          },
          {
            "astId": 6041,
            "contract": "contracts/staking/StakingController.sol:StakingController",
            "label": "lastRewardedBlock",
            "offset": 0,
            "slot": "2",
            "type": "t_uint256"
          },
          {
            "astId": 6043,
            "contract": "contracts/staking/StakingController.sol:StakingController",
            "label": "accTokenPerShare",
            "offset": 0,
            "slot": "3",
            "type": "t_uint256"
          }
        ],
        "numberOfBytes": "128"
      },
      "t_struct(UserInfo)6034_storage": {
        "encoding": "inplace",
        "label": "struct StakingController.UserInfo",
        "members": [
          {
            "astId": 6031,
            "contract": "contracts/staking/StakingController.sol:StakingController",
            "label": "amount",
            "offset": 0,
            "slot": "0",
            "type": "t_uint256"
          },
          {
            "astId": 6033,
            "contract": "contracts/staking/StakingController.sol:StakingController",
            "label": "accumulatedRewards",
            "offset": 0,
            "slot": "1",
            "type": "t_uint256"
          }
        ],
        "numberOfBytes": "64"
      },
      "t_uint256": {
        "encoding": "inplace",
        "label": "uint256",
        "numberOfBytes": "32"
      }
    }
  }
}